:100000000C948C040C94D3040C94D3040C94D3045B
:100010000C94D3040C94D3040C94D3040C94D30404
:100020000C94D3040C94D3040C94191D0C94551CFB
:100030000C94F1280C94D3040C94D3040C94D304A2
:100040000C94D3040C94D3040C94D3040C94D304D4
:100050000C94D3040C94B0280C94D3040C94D304C3
:100060000C94D3040C94D3040C94D3040C94D304B4
:100070000C94D3040C94D3040C94D3040C94D304A4
:100080000C94D3040C94D3040C94D3040C94D30494
:100090000C94D3040C94D3040C94D3040C94D30484
:1000A0000C94D3040C94D3040C94D3049A0AB00A8D
:1000B000B70A000C000CEF0A000B130B610B660B68
:1000C000000C000C000C6E0B5D105D108D108D107F
:1000D00015113111501250123C11B011C111C11142
:1000E0005B1A821A371C821A371CCE1AF11A371C77
:1000F000F21B021CEA1EEA1EFD1EFD1EF31EFD1E63
:10010000FD1EFD1EEA1EEA1EF81EFD1EFD1EF81E47
:100110001E140A05FD377A585A000004E6D6B44684
:100120000200210116000000742FE5A3E005B901CB
:10013000D75D003D8889C65436C3174FE4DCC9D368
:10014000BD6B4469C42BA03E742DD23B5B5C2A0B73
:100150009BE8E44B0383255E70F54A3AA0667BC1B9
:10016000560B3F8213B0B05499556FA43EAA9A180B
:10017000D6097AD1688AD5FE8AD208D80451866316
:10018000C54F1F064257AD0704F358CA113F8003FD
:10019000C10E424004D5EBDB0D61D878CE7FCDE9AE
:1001A00000368C8B91F2A84AA67EF26789D8240B80
:1001B000C4DE77565E7478F1A753FA081793F63ABF
:1001C000CA5D29CC1B3B60B22EEADA0AAB34BE21F1
:1001D000B9D663CB8DBFA2254A1B14F927DE711552
:1001E000522BD4869B6CA2FD5EE537FF36F5007678
:1001F000522AC71D58816D14AAC23F8CF4AAF4F08C
:10020000ED1E3C4F61379E0FF641896615D87E6F13
:10021000C0A30448ED9D6B2AAC94EC93D05F3FCD16
:10022000DAE77F8192A7B652C8A630E0E0F4876291
:10023000C78A008BF3552F4599441635109945D23E
:10024000F3957458D4F047BF175526C0E2A7D409D8
:10025000A17D6304CFAC78807C6252222E4D1F02B8
:100260006F3D7C808CE0D4225E28D2A1D64875BD3B
:100270005F6F28ADC1EDECA85116BD8847B3D6DA43
:10028000A3CEAEAF3E57059DFB8DF54EFB0B1795EC
:10029000FEE1E6C7EB96803ED28A7D6B0F4C1912C9
:1002A0004B1FDA167A4289BB038ADC78F931D7AD65
:1002B000DD11442B1068B8E7BD94610ABA449D2251
:1002C00031647275E7F840527C170B7A423E109BFE
:1002D00049EE78B33CEAAEE83F7F87A3BD85F236AE
:1002E0002B7288A1ADF98A9726C698241264BAE1C8
:1002F000B7A0CD15A590825FF0BBC2A5E91DC46D66
:100300004AF6E733DE0E0C8E30270000BFBF8CD4D8
:100310000D1790CB0001F303BA0B0000A5846969A7
:10032000B1C467FB020000000004595A000101013A
:1003300001010101010102020202020202020203A2
:100340000303030303030304040404040404050572
:100350000505050606060606070707070708080835
:1003600008090909090A0A0A0B0B0B0C0C0C0D0DE4
:100370000D0E0E0E0F0F0F1010111111121213137C
:100380001414151516161717181819191A1A1B1BF5
:100390001C1D1D1E1E1F2020212222232424252651
:1003A00026272829292A2B2C2D2D2E2F3031323289
:1003B000333435363738393A3B3C3D3E3F40414295
:1003C000434445464748494A4C4D4E4F505153547B
:1003D000555658595A5B5D5E5F616264656668692F
:1003E0006B6C6D6F7072737577787A7B7D7E8082AF
:1003F000838587888A8C8E8F91939596989A9C9EF8
:10040000A0A2A3A5A7A9ABADAFB1B3B5B7BABCBE07
:10041000C0C2C4C6C9CBCDCFD1D4D6D8DBDDDFE2D4
:10042000E4E7E9EBEEF0F3F5F8FAFDFF22232526E9
:1004300028292A2C2D2F3032333536383A3B3D3E91
:100440004042434547494A4C4E5051535557595ADB
:100450005C5E6062646668696B6D6F7173757779F5
:100460007B7D7F81838587898A8C8E9092949698F4
:100470009A9C9E9FA1A3A5A7A8AAACAEAFB1B3B406
:10048000B6B8B9BBBCBEBFC1C2C3C5C6C7C9CACB5B
:10049000CCCDCED0D1D2D2D3D4D5D6D7D7D8D9D926
:1004A000DADADBDBDBDCDCDCDCDCDDDDDDDDDCDC8F
:1004B000DCDCDCDBDBDBDADAD9D9D8D7D7D6D5D4AC
:1004C000D3D2D2D1D0CECDCCCBCAC9C7C6C5C3C278
:1004D000C1BFBEBCBBB9B8B6B4B3B1AFAEACAAA8CD
:1004E000A7A5A3A19F9E9C9A98969492908E8C8A81
:1004F00089878583817F7D7B79777573716F6D6B5C
:100500006968666462605E5C5A5957555351504E33
:100510004C4A4947454342403E3D3B3A38363533E5
:1005200032302F2D2C2A29282625232205010902C5
:10053000A10185020901A10005091901290515007C
:10054000250195057501810295017503810105015C
:10055000093009311581257F950275088106093812
:100560001581257F950175088106050C0A3802154D
:1005700081257F950175088106C0C005010980A10C
:1005800001850319012AB700150126B700950175E9
:10059000108100C0050C0901A101850419012AA0E0
:1005A00002150126A002950175108100C00660FFAA
:1005B0000961A1010962150026FF009520750881D7
:1005C000020963150026FF00952075089102C005F9
:1005D000010906A101050719E029E7150025019584
:1005E0000875018102950175088101050719002927
:1005F000FF150026FF009506750881000508190102
:100600002905950575019102950175039101C009B0
:10061000025B00030100A0FA0904000001030101CC
:100620000009211101000122400007058103080093
:100630000A09040100020300000009211101000160
:100640002222000705820320000107050303200082
:100650000109040200010300000009211101000149
:100660002281000705840320000A12010002000015
:1006700000084B4B25121100010203011C037600F8
:10068000690061006C003A006600360034006300C7
:1006900032006200330063000000160343006C0068
:1006A000610072006100620065006C006C00650012
:1006B000000018034B0069006E0067006C007900B1
:1006C0002D004B006500790073000000040309044D
:1006D000240025002600165C390014001A000800CA
:1006E000150017001C0018000C0012001300310048
:1006F000320021002200230000002B00040016001D
:10070000070009000A000B000D000E000F00330067
:1007100000002A001E001F0020005200D75C0000CD
:100720001D001B0006001900050011001000360016
:1007300037003800D85C27002700500051004F00D8
:10074000E000E300E200000028412C422C420000BF
:10075000E600E700E400005C2400250026003500E8
:10076000390014001A000800150017001C001800BA
:100770000C0012001300310032002100220023007F
:1007800000002B002D002E003400330021020B004E
:100790000D000E000F00330000002A001E001F0095
:1007A000200052002F62000035021F022002310299
:1007B00023022E0034002F00300038003072270052
:1007C0002700500051004F00E000E300E20000006D
:1007D0000100010001000000E600E700E400005C09
:1007E0004000410042003500390014001A000800A2
:1007F000150017001C0018000C0012001300310037
:1008000032003D003E003F0000002B002E022D0272
:1008100031002C0021020B000D000E000F003300F0
:1008200000002A003A003B003C002C002F62000030
:100830001E022202310024021F02230234022C0075
:100840002C0038003072270027002C002C002C00D0
:10085000E000E300E20000000100010001000000F0
:10086000E600E700E400005C00000000000000007B
:100870000000000000000000000000000000000078
:100880000000000000000000000000007E0F00D407
:10089000FFFFFFC70000007800000000000000001C
:1008A0002A2B2800000000000000000000000000CB
:1008B00000000029000000002C1E342021222434D6
:1008C0002627252E362D3738271E1F2021222324A8
:1008D00025263333362E37381F0405060708090A44
:1008E0000B0C0D0E0F101112131415161718191AE0
:1008F0001B1C1D2F3130232D350405060708090A5E
:100900000B0C0D0E0F101112131415161718191ABF
:100910001B1C1D2F3130354C11241FBECFEFDAE0E8
:10092000DEBFCDBF04B603FE27C080913504909191
:100930003604A0913704B09138048730904BA7401B
:10094000B04BD1F410923504109236041092370453
:100950001092380414BE84B7877F84BF0FB6F89412
:10096000A89580916000886180936000109260007B
:100970000FBEE0E0F8E3099511E0A0E0B1E0E6E3A6
:10098000F4E602C005900D92A437B107D9F724E030
:10099000A4E7B1E001C01D92A533B207E1F70E94C0
:1009A000D5040C9419320C940000CF93DF93CDB78B
:1009B000DEB7E6970FB6F894DEBF0FBECDBF84B7A3
:1009C000877F84BF0FB6F894A895809160008861F6
:1009D00080936000109260000FBE90E080E80FB638
:1009E000F89480936100909361000FBE85B7806892
:1009F00085BF85B7806885BF87E293E290937501D4
:100A0000809374010E940D150E94ED2C0E94991C88
:100A10000E94B81C8091E20084608093E200789488
:100A20008091F2018823A1F01091E9001F7090914C
:100A3000EC00892F817090FD80E8182B1092E9005E
:100A40008091E80083FD0E9473191F701093E900E4
:100A500082E084BD93E095BD9AEF97BD80936E00D0
:100A60000E949015811102C00E94811509E111E0D8
:100A70004DE1E42E41E0F42ED8018D918D018F3FA0
:100A800011F00E946C23E016F106B1F70DE111E0C0
:100A90003EE2E32E31E0F32EF80181918F018F3F8A
:100AA00011F00E946C23E016F106B1F780E1E1EA53
:100AB000F1E0DF01282F1D922A95E9F7E8E7F1E040
:100AC000DF011D928A95E9F70E947926811102C003
:100AD0000E94842682E090E00E94733180938C0112
:100AE0000E94682690937701809376010E94832369
:100AF000EFE3FCE93197F1F700C000000E94832387
:100B00008091A10180FF08C06FEF7FEF80E090E04F
:100B10000E94A5310E948C2883E090E00E947331EE
:100B20000E944E2180918801811133C00E94792654
:100B3000811104C00E9484260E94771788E090E00B
:100B40000E947B316093F4017093F5018093F6016C
:100B50009093F7016E7F71F40E94771788E090E020
:100B60000E947B316093F4017093F5018093F6014C
:100B70009093F7010E9434161092C9018091F401FC
:100B800080FF04C060E086950E94291781E0809371
:100B9000880180E091E090932A0480932904332413
:100BA0003394222423948091F201853009F07DC092
:100BB00000E112E18091F201853009F05FC080917F
:100BC000F201843009F443C080E00E94462D109267
:100BD000C90180918A01811116C020928A018091F9
:100BE000F401982F9170909389018E7F8093F40186
:100BF000FFEF20E732E0F15020403040E1F700C045
:100C000000000E94C51510922D0488E190E0A0E438
:100C10000FB6F894A895809360000FBEA093600073
:100C200083B7817F846083BF83B7816083BF7894FB
:100C3000889583B78E7F83BF0FB6F894A89580916F
:100C40006000886180936000109260000FBE809108
:100C5000E801882309F4AECF0E948323E1EAF1E0A2
:100C600081919191A191B191892B8A2B8B2B09F0C4
:100C7000CBC5B1E0E13BFB0799F79CCF0E94522125
:100C80000E946D290E94462D10928A01809189014F
:100C9000882349F08091F40181608093F40160E041
:100CA00086950E9429170E94AF150E9483238823EE
:100CB00059F08FB7F89440912E0450912F04609111
:100CC0003004709131048FBFE1EAF1E0FEABEDAB8F
:100CD000ADE8B1E000E010E0902F81909190A190FC
:100CE000B1904D915D916D917D91482559256A2571
:100CF0007B25411551056105710509F443C080E06C
:100D0000C12CD12C7601C3942A013B014C205D20DB
:100D10006E207F2045284628472869F18BA79CA78D
:100D20008C209D20AE20BF2081E089288A288B2836
:100D300009F480E08DA70E94E5288160782F9FA7A5
:100D40008EA74BA55CA56DA58FA50E94912E000FC7
:100D5000111F000F111FF801E357FE4F8081918191
:100D6000A281B381C826D926EA26FB26C082D18279
:100D7000E282F3821DC08F5FCC0CDD1CEE1CFF1CD9
:100D8000813111F60F5F1F4F0430110509F0A4CF18
:100D90008FEF88AB89AB1AAA0E94E5288160782F73
:100DA0009CAB8BAB48A959A96AA98CA90E94912E2A
:100DB0008091C901882309F440C08091C801E09165
:100DC000F401E695E81BE093C401823059F4F0E0A9
:100DD000E05FFE4FE4910E2F10E083E0E82E86E105
:100DE000F82E06C000ED17E0BFECEB2EB2E1FB2EB3
:100DF0008091C501882361F01092C5010E94E52809
:100E00009093C3018093C2011092C7011092C60152
:100E10000E94E528E091C201F091C3018E1B9F0B57
:100E20008F3F9F4750F40E0F1F1F1093C301009375
:100E3000C20182EC91E0F701099586E0E9EBF1E06F
:100E40008E010F5F1F4FD80101900D928A95E1F737
:100E5000C090BB01D090BC01E090BD01F090BE01FC
:100E60001092BB011092BC011092BD011092BE0104
:100E7000C11003C0DD2009F44FC08091B7019091EB
:100E8000B8010E94D6289C019091B301992309F4DE
:100E9000DAC42333310508F43FC09F3F19F09F5F48
:100EA0009093B301CC2061F00E943A311C1414F4E9
:100EB00091E001C09FEF899F802D11248093BB0199
:100EC000DD2061F00E943A311D1414F491E001C05C
:100ED0009FEF899F802D11248093BC013091BB012D
:100EE0003323D1F02091BC012223B1F045EB340330
:100EF000C0011124992319F09093BB0102C03092D4
:100F0000BB0135EB2303C0011124992319F0909301
:100F1000BC0102C03092BC01E11003C0FF2009F403
:100F20004FC08091B5019091B6010E94D6289C01D6
:100F30009091B201992309F48BC42536310508F448
:100F40003FC09F3F19F09F5F9093B201EE2061F088
:100F50000E9418311E1414F491E001C09FEF899F84
:100F6000802D11248093BD01FF2061F00E94183173
:100F70001F1414F491E001C09FEF899F802D11246C
:100F80008093BE013091BD013323D1F02091BE0189
:100F90002223B1F045EB3403C0011124992319F049
:100FA0009093BD0102C03092BD0135EB2303C00117
:100FB0001124992319F09093BE0102C03092BE0112
:100FC0008091BB0181110BC08091BC01811107C0D0
:100FD0008091BD01811103C08091BE0181110E94E9
:100FE0008717CB82DC82ED82FE8286E0F801A9EBD6
:100FF000B1E001900D928A95E1F70E946D299091E0
:101000008B01891731F00E946D2980938B010E941A
:10101000462D8091F201843009F0C5CD83E08093A4
:10102000E9008091E80082FFBECD8091E80085FF55
:1010300021C00E94F01D81111BC0A0E2EA2EF12CFC
:10104000680109C08091F100D6018D936D01B1E076
:10105000EB1AF10869F08091E80085FDF3CF8091EB
:10106000E8008B778093E8000E94F01D882399F3B5
:1010700091E001C090E08091E8008B778093E800D8
:10108000992309F490CDE090C602F090C7028981BF
:10109000E114F10461F08E3F09F0B2C38A8183301C
:1010A00008F43CC28550833008F0AAC337C28B30A5
:1010B00009F41EC280F5853009F48CC0B0F482308A
:1010C00009F445C030F4813009F098C31A8289E0F0
:1010D000F6C2833009F46DC0843009F08FC34C81AF
:1010E0006B818A810E94A32C73C0873009F480C071
:1010F00008F47BC0883009F4BDC0893009F07EC394
:101100006091F4017091F5018091F6019091F701E1
:101110000E944E1675C3803109F42CC160F48D30E5
:1011200009F4CBC008F4C7C08E3009F4C9C08F30B1
:1011300009F4F1C063C3823109F421C108F41DC16F
:10114000833109F446C18E3F09F4E8C157C38A814F
:10115000823009F46FC3833089F0813009F04EC3C7
:101160002FB7F89480912E0490912F04A091300411
:10117000B09131042FBFBB83AC832AC08091C202DF
:101180009091C302892B09F43BC3F8019E01235FB0
:101190003F4FADA9BEA94D915D916D917D91BEABC3
:1011A000ADAB6283538344833396E217F30789F729
:1011B00027C38A81823009F021C36B817C818D81B4
:1011C0009E810E94F13186E290E00E94873118C32F
:1011D0009D8337C32D813E813227232732274C81BF
:1011E0006B818A810E94D82B0BC30E940E2C08C3EE
:1011F0008A818138B1F050F4803809F001C320E0D1
:101200004B816091F6018091F50131C0823859F12E
:10121000833809F0F5C220E04091F7016C818B81A1
:1012200026C060E08B810E9429179B818091F40188
:10123000911111C08E7F8093F4011092C901BFEF0C
:10124000E0E7F2E0B150E040F040E1F700C000001C
:101250000E94C515D5C281608093F40160E0869537
:101260000E942917CDC28B818093F801C9C20E94C8
:101270006016C6C28A81813899F030F4803809F04E
:10128000BFC28091F7011BC2823891F0833809F008
:10129000B7C28091F5018B838091F6018C83B0C237
:1012A0008091F40180FF02C0869509C280E007C2E8
:1012B0008091F80104C280E13FC23A8289E1FFC116
:1012C000EA80FB80FE24EF24FE24AC80B12C2DE1CB
:1012D000A216B10408F094C26801C70189519D4F5C
:1012E0009601201B310B2A153B0508F089C239E114
:1012F000E31631E0F30630F40E947331D601149600
:101300008C9302C0F6011482FFEFEF1AFF0A2FEF51
:10131000C21AD20AE2CF8091C2029091C302892BF5
:1013200009F46EC2EA80FB80FE24EF24FE24CC8008
:10133000D12C3DE1C316D10408F062C25801C701A7
:1013400089519D4F9501201B310B2C153D0508F04F
:1013500057C249E1E41641E0F40628F4D501149699
:101360006C910E948731BFEFEB1AFB0AEFEFAE1AC8
:10137000BE0AE5CF0E94B32B43C284E0DDC1EA8000
:10138000FB80FE24EF24FE24AC80B12CFDE1AF16DF
:10139000B10408F035C26801C70187969601201B89
:1013A000310B2A153B0508F02BC220E2E21622E0A1
:1013B000F20630F40E947331D60114968C9302C069
:1013C000F6011482FFEFEF1AFF0A2FEFC21AD20ABA
:1013D000E3CFEA80FB80FE24EF24FE24AC80B12C16
:1013E0003DE1A316B10408F00BC240E2E41642E06E
:1013F000F40608F005C280E292E08E199F098A1572
:101400009B0508F4FDC1370187E2680E711C8091CD
:10141000C2029091C302892B11F0680160C0E0FE06
:101420000FC0C70186960E94733190E0982F8827DD
:101430002D81822B81159C4531F48FEF8D8303C064
:10144000C12CD12C03C0CC24C394D12CC5018E0D4A
:101450009F1D450180FF1BC0B1E08B1A910865E01C
:10146000462E512C4C0E5D1E480C591CC3018A0D92
:101470009B1D0E947331F201208130E0322F222720
:10148000282B21153C4519F48FEFD2018C93F801DC
:10149000EC0DFD1D2FEFCF01801B910B88159905D9
:1014A00008F0BBCF848190E0982F88273581832B6B
:1014B00081159C4511F4248325833296ECCFE0E21C
:1014C000EE16E2E0FE0628F4D60114966C910E9416
:1014D0008731BFEFEB1AFB0AEFEFCE1ADE0AC70126
:1014E00087969601201B310B2A153B0540F388C1D6
:1014F0008091C2029091C302892B09F481C1C80175
:101500000E944F1EFFEF21EE34E0F15020403040AA
:10151000E1F700C000000E948C2872C1EA818E2F82
:1015200090E08E30910508F06BC1FC01EA5AFF4F44
:101530000C94EB3188E0E1E1F1E0DE01919601905D
:101540000D928A95E1F780E2D8011D928A95E9F71C
:1015500084E0898388E0FE01B196DE0115962AC1F8
:1015600088E1898382E08A831B821C8249C18C8145
:1015700090E0982F88272B81820F911D092E000C57
:10158000AA0BBB0B45E0880F991FAA1FBB1F4A95EA
:10159000D1F7AC01BD01405E5F4F6F4F7F4F4817E1
:1015A00059076A077B0708F42BC18831E2E09E07E0
:1015B000A105B10508F024C14931F2E05F076105DA
:1015C000710520F048E152E060E070E0481B590BE3
:1015D000BC016C5E7E4FC8010E945A3111C140E2CD
:1015E00050E06FEF70E0C8010E9412328091C20299
:1015F0008983EA821B821C8282E08D838DE021C177
:1016000081E090E09093C7028093C60282E390E06D
:101610009093A00180939F010E94E52890939E01E2
:1016200080939D01EDC0EF2809F441C08091A9018C
:101630009091AA01A091AB01B091AC012DE0B695BB
:10164000A795979587952A95D1F72091A1012170AB
:10165000F22EF82280919D0190919E010E94D62841
:1016600085369105F0F0FF20E1F00E94E528909387
:101670009E0180939D0180919F019091A00101970F
:101680009093A00180939F01892B89F41092C70247
:101690001092C60281E090E09093C3028093C20250
:1016A00006C082E390E09093A00180939F01809117
:1016B000C20289838091C6028A8380919F018B83B5
:1016C0009FC01092C3021092C2029AC040E250E042
:1016D0006FEF70E0C8010E94123292C08B8182309D
:1016E00069F1E8F4882309F1813009F089C08C811F
:1016F0009AE0F92E6E01B1E2CB0ED11CF6012F2D2E
:1017000011922A95E9F7B6010E94C32B8983F6014D
:10171000DE01129601900D92FA94E1F771C08330C8
:1017200061F1843009F44BC06BC080E2D8011D9296
:101730008A95E9F788E089838A8362C06C818AE0B0
:10174000FE013596DE01919601900D928A95E1F7A2
:10175000683070F43AE0639FB0011124695B7D4FFB
:101760004AE050E0CE0181960E94AB3180E001C09A
:101770008FEF89830E940D1543C06C81CE01819645
:101780002AE0DC011D922A95E9F7683060F4BAE09E
:101790006B9FB001112469567D4F4AE050E00E94D2
:1017A000633180E001C08FEF89838AE0FE01B1964A
:1017B000DE01129601900D928A95E1F721C06C81AD
:1017C0008AE0FE013596DE01919601900D928A9590
:1017D000E1F7683070F4EAE06E9FB00111246956B9
:1017E0007D4F4AE050E0CE0181960E94AB3180E00F
:1017F00001C08FEF89830E94ED2C02C08FEF898397
:10180000C8010E944F1ECFC909BD19BD09B400FE11
:10181000FDCF8091D8008F7D8093D8008091E0002B
:1018200082608093E0008091E00081FDFCCF0E9407
:101830005221C0C986E290E00E9473311B821C8253
:101840001D828E83DDCF2D32314008F028CB64CB52
:101850002D32314008F077CBB3CB8F929F92AF926D
:10186000BF92CF92DF92EF92FF920F931F93CF938D
:10187000DF9300D000D0CDB7DEB7FC01808191812D
:1018800023813481232B31F09F3F31F491E08F3F4E
:1018900019F403C091E001C090E090FD6FC67F0194
:1018A00061E0CF010E945A2E8C01D70112968C91D3
:1018B000811105C0F701828181113EC0BEC08091B7
:1018C0000E0190910F010196A9F337E7C32E33E083
:1018D000D32EA12CB12C9924939480910E01909138
:1018E0000F018A159B0534F3D60116968C91169735
:1018F0008823D9F019968D919C911A97081719078A
:1019000039F480917503909176030817190769F0EF
:10191000F601978614870387C6010E94C029C60175
:1019200006960E94792910927403FFEFAF1ABF0A3E
:1019300026E1C20ED11CD1CFC80182519F454097EC
:1019400008F098C08FEF93E00E94733181117FC03F
:101950002EEED22ED00E07EE12E0DD2071F0011532
:1019600084E0180709F473C0C8010E947331811123
:1019700001C0DA940F5F1F4FF0CF19821A821B82C9
:101980001C82AA24AA9468019FEFC91AD90AC80127
:101990000E94733189831A82882309F458C08130E8
:1019A00009F046C04801A2E08A0E911CC6010E94BF
:1019B00073318A83882309F44AC09FEF980F9330CC
:1019C00060F46801B3E0CB0ED11CC4010E947331F6
:1019D0008B8381112DC08601D6CF843011F0640134
:1019E000FACFC4010E947331B82E6801E4E0CE0E34
:1019F000D11CC80103960E947331BB2041F188239A
:101A000031F1282F30E021503109A29EA001A39E80
:101A1000500D11248B2D90E00197840F951F019795
:101A2000D0F2AFE9BFE01197F1F700C00000F7CFA7
:101A3000CE0101960E94A72DCECF0031AFE51A0747
:101A400009F055C581E00E9437210E9468198091F4
:101A50006902877009F492C5D70112968C91882388
:101A600009F48CC58091770182FD88C582E00E94CF
:101A70004B2784C50031FFE51F0711F481E005C045
:101A800001312FE51207A1F482E00E944321DDCF4E
:101A9000680187E5D81A9FEFC916D10409F040F410
:101AA00062ED71E08C2D0E94C32B892B09F426C5B1
:101AB000C80197558F3F910511F008F053C0209150
:101AC0000E0130910F012817390724F490930F016C
:101AD00080930E01D70112962C91129736E1389F10
:101AE0005001399FB00C1124F501E958FC4F6F01EA
:101AF000208B12969C918681992351F11287018740
:101B00008F5F86830E94E528D6011E969C938E9354
:101B10001D9780916D0217968C931797909174037F
:101B200080917303892B18968C931897ED91FC91F3
:101B30001197309741F054966D917C915597C5015E
:101B400083589C4F099510937603009375030AC040
:101B5000882341F08189882329F0C50183589C4F4F
:101B60000E947929033FFCE51F0759F190F4083DD5
:101B70008CE51807E9F0093D9CE51907A1F1073D3F
:101B8000ACE51A07B1F506E221EE41EE67ED7CE522
:101B900014C0053FBCE51B0701F1C8F0063FFCE59A
:101BA0001F0739F507E225EE46EE66EF7CE505C036
:101BB00007E225EE45EE68ED7CE5C7010E94E529C8
:101BC00046CF06E221EE40EE63EF7CE5F6CF07E27A
:101BD00025EE44EE64EF7CE5F0CF06E221EE42EE26
:101BE00065EF7CE5EACF08E221E045EE69ED7CE5B2
:101BF000E4CFD70112968C91882309F445C1109245
:101C000072030330BDE51B0758F40A3FECE51E07DD
:101C100060F4C80182509C45449708F01FC105C07C
:101C20000136FDE51F0709F019C10E94682690934F
:101C300077018093760100312CE5120709F4CAC0C0
:101C400008F041C008309CE5190709F4A4C0F0F47D
:101C50000430BCE51B0709F48CC068F40230FCE5D5
:101C60001F0709F482C003301C4509F0E7C08091CA
:101C700076018260E1C006308CE5180709F483C064
:101C800008F085C0809176018860D6C00C30ACE544
:101C90001A0709F490C068F40A30ECE51E0709F44D
:101CA0007EC008F084C00E94522180917601806835
:101CB000C3C00E302CE5120709F481C008F086C0BD
:101CC0008091760194C00C3F9CE5190709F47BC014
:101CD00038F50431BCE51B0709F49AC058F4023109
:101CE000FCE51F0709F47AC008F07EC080917601F8
:101CF0008F7BA2C00A3F8CE51807F1F108F03FC0C6
:101D000005311C4509F09AC08091760182FB22279B
:101D100020F991E0922790FB82F990FB83F98CC027
:101D20000115BDE51B0709F467C050F480917701E8
:101D30000E3FFCE51F07C1F108F05BC08D7F65C059
:101D400002308DE5180709F471C008F46DC0013642
:101D50001D4509F073C08091760184FB222720F98C
:101D600091E0922790FB84F967C0809176018160B1
:101D700063C08091760116C08091770116C0809172
:101D80007701826042C080917601806155C0809168
:101D90007601806251C08091760180644DC080914F
:101DA00076018860846048C0826081602EC0809126
:101DB00076018E7F41C0809176018D7F3DC08091FC
:101DC0007601877F39C08091770114C080917601B8
:101DD0008F7E32C0809176018F7D2EC00E9452216D
:101DE000809176018F7728C080917601877F8B7FE5
:101DF00023C08D7F8E7F09C080917701982F9095A9
:101E000091708E7F892B90FB81F98093770116C0AA
:101E10000E9452218091760187FB222720F991E0D0
:101E2000922790FB87F908C061E001C060E08EE076
:101E300090E00E94873102C0809376016091760124
:101E40001091770184E090E00E948731612F82E257
:101E500090E00E9487310E945221F9CD8091730356
:101E60000631BCE51B0709F58A7A91E009F490E098
:101E70009093B101882311F065E301C069E284E128
:101E800092E00E9427290EC006311C4509F0C2C00D
:101E90008091B101882309F46FC365E384E192E086
:101EA0000E941A290E940727D2CD8272093CBCE504
:101EB0001B0709F468C0F0F4053CFCE51F0709F4B2
:101EC00053C060F4033C9CE5190709F443C008F0D3
:101ED00046C0023CBCE51B0781F16BC0073CECE54A
:101EE0001E0709F446C008F049C046EE56E16DED04
:101EF00076E157C00D3C2CE5120709F455C060F49B
:101F00000B3CACE51A0709F443C008F046C049EBA6
:101F100056E16DEA76E145C0063DECE51E0738F472
:101F20000F3C1C4508F093CD0E94591990CD0D35FA
:101F30002DE5120709F48BCD3CC08091F40180FFA0
:101F400003C00E94111783CD81608093F40161E08A
:101F500086952CC044E657E16DE677E122C04DE658
:101F600057E164E677E11DC04DED56E166EE76E19E
:101F700018C045EC56E161ED76E113C041ED56E144
:101F800065EC76E10EC04DEA56E169EB76E109C0F9
:101F90004FEE56E160E077E104C040E057E16FEEBC
:101FA00076E10E94A91553CD61E081E00E942917D6
:101FB0004ECD0A358DE5180741F150F40115ACE519
:101FC0001A07A9F00E3D1C4529F50E9484263FCD35
:101FD0000B35EDE51E07D9F00C351D45D9F4809180
:101FE000770182FB882780F991E0892711C00E9440
:101FF00052212FEF84E39CE0215080409040E1F794
:1020000000C000000E948C2822CD81E001C080E049
:102010000E946827F701868197810097B9F4F7013C
:10202000828100811181882349F0C8010E94921E9B
:10203000D82E682FC8010E94062104C0C8010E9442
:10204000D620D82EB8018D2D0E94D12C0E94CE24EE
:102050008C01D7011296DC9012971596CC90C29401
:102060009FE0C922809169028770B9F0DD20A9F054
:10207000812F807F803421F080E2800F883068F0EB
:102080008091770182FD09C082E00E944B278091F8
:1020900069028770BB24B3948111B12CA12EA29444
:1020A0008FE0A8228A2D90E08C30910508F0F8C1CD
:1020B000FC01EC59FF4F0C94EB31812F807F1F7096
:1020C000882311F01295107FDD20B9F0112309F457
:1020D000D4C180E2800F883010F0011106C09091C9
:1020E0007303192B1093730305C090917403192B7C
:1020F000109374030E940727C0C1802F0E940522FD
:10210000112309F4CDC180E2800F883060F10023F3
:1021100051F1812F0E94F92629C0812F807F1F70E5
:10212000803211F01295107F002321F0013009F464
:102130005EC069C08091770182FF1BC0DD2069F01D
:10214000112339F090917303192B109373030E949C
:10215000072780E00E946522A3C180E00E9405223B
:10216000112309F49DC1812F0E9400270E94072797
:1021700097C1DD2031F1CC20F1F0B1E0CB120FC0DE
:1021800080916D02182B181709F48AC10E94E52866
:1021900090936C0280936B0210936D0281C1E5E015
:1021A000CE1209C00E94EE26809166021817C1F176
:1021B0001093660235C080916D02812B0E94FB2135
:1021C0006FC1CC2051F0F1E0CF120DC080917303AC
:1021D000812309F465C10E949B270E94EE26812F6E
:1021E0000E94F4215DC125E0C212F7CF59C1DD2064
:1021F00029F085E08C1508F453C112C094E09C15B9
:1022000008F44EC1ECCFDD2069F0CC2049F0D701B5
:1022100015968C91159780FF30C18F7015968C9311
:10222000812FCCCFC1102EC1DACF812F8695869514
:10223000837019F0813059F033C1DD2019F0C801E5
:10224000937002C080E090E00E94572931C1DD20E8
:1022500019F0C801937002C080E090E00E9441290B
:1022600027C1802FDD2019F00E94361802C00E947D
:10227000B1170E9487171CC1812F8370A9F5D11057
:1022800013C1402F429546954770440F440F802F4D
:102290008F7090E09C01042E01C0220F0A94EAF78F
:1022A00004FF08C08FE090E001C0880F4A95EAF76C
:1022B000809501C080E0169516951370123069F074
:1022C00088F490916E02113019F0822B892302C09C
:1022D000922B892B0E944E21E7C0822B90916E0297
:1022E0008927F8CF822BF6CFDD2019F0812F81705E
:1022F00001C08695882309F4D7C0402F42954695A2
:102300004770440F440F802F8F7090E09C01042E83
:1023100001C0220F0A94EAF704FF08C08FE090E0A2
:1023200001C0880F4A95EAF7809501C080E01695B4
:1023300016951370123059F078F49091F301113022
:1023400019F0822B892309C0922B892B06C0822B7E
:102350009091F301892701C0822B0E943321A4C0F0
:102360001F70DD2039F0812F0E944321802F0E94B1
:10237000FB219AC0802F0E94F421812F0E943721D7
:1023800093C0023F61F128F4003F41F0013F01F1A9
:102390006FC0033F59F1043FB9F06AC0DD2079F006
:1023A00024E02C1508F47CC01F7181E090E001C08E
:1023B000880F1A95EAF79091F301892721C085E0EB
:1023C0008C1508F46DC0F0CF8091770182FF1BC09F
:1023D000DD2039F0812F8F710E94432161C0DD2003
:1023E000C9F3812F8F710E9437215AC0DD2039F047
:1023F0001F7181E001C0880F1A95EAF701C080E0E3
:102400000E9433214DC0DD20D9F0809166020E94E8
:102410000027809169028770843039F40E94442734
:10242000812F8F710E94372160C094E09C1508F4C1
:102430005CC01F71812F0E94432163E0812F11C076
:102440009091730380916602892B80937303A4E0BB
:10245000AC1550F40E9444270E949B2764E0812F12
:102460008F710E94852741C081E00E944B273DC0AB
:10247000DD2029F0CC2009F4ADCF802F6BCECC200D
:1024800009F4AFCF093349F4BFEFE7EEF3E0B15001
:10249000E040F040E1F700C00000802F0E940522DC
:1024A00088EF8A0D843020F40E946D290E94462D09
:1024B000BB20B1F08091690280FD12C0D701129655
:1024C0001C928595859585950E944321C7010E94A0
:1024D0002D0C809169028595859585950E943721FF
:1024E00060E0C7010E945A2E49C0B12CDDCF0131F6
:1024F000BFE51B0709F0CCCA82E0A5CA86E18C9D26
:10250000F0018D9DF00D1124E958FC4F868181303A
:10251000E1F48091D2019091D301892B09F4C8CACA
:102520008091D4019091D501892B09F4C1CA809181
:10253000D6019091D701892B09F0BACA8091D801B0
:102540009091D901892B59F0B3CA823009F0B0CAF1
:102550008091D6019091D701892B09F4A9CA26E16F
:102560002C9DC0012D9D900D112489589C4FFC017C
:10257000108A0E94C0299CCA69E290CC0F900F90EB
:102580000F900F90DF91CF911F910F91FF90EF90DF
:10259000DF90CF90BF90AF909F908F900895089557
:1025A000AF92BF92CF92DF92EF92FF920F931F9361
:1025B000CF93DF93E82EF62EE901E42FF0E06111CE
:1025C00006C0E45DFC4FE4914E2F2E2F71C0062F04
:1025D00010E0E45DFC4F4491F42FC42ED12C26E092
:1025E000829FC00111242FEF30E0B9010E94C33156
:1025F0005BEA5603C001579F900D11248E0D911D6B
:102600008E0D911D582F550F580FD901A01BB10BDE
:10261000AC9DC001AD9D900DBC9D900D1124E92F86
:10262000F59ED0011124AB2FBB277901EA1AFB0AD2
:10263000EC9CD001ED9CB00DFC9CB00D1124590117
:10264000A51AB108A09E7001A19EF00CB09EF00CDE
:102650001124EF2CFF242E193F092C9D80012D9D64
:10266000100D3C9D100D1124212F6230710591F049
:1026700048F461157105E1F061307105B9F4242F5A
:102680004B2F16C06430710569F040F0663071055B
:1026900079F00CC0242F492FE12F0AC0492FEF2FCA
:1026A0002B2F06C0292FE42F412F02C0292FEB2FFB
:1026B00049832883EA83DF91CF911F910F91FF9087
:1026C000EF90DF90CF90BF90AF9008950F931F933E
:1026D000CF93DF9300D000D01F92CDB7DEB78C012F
:1026E0009093C5028093C402011580E2180738F563
:1026F000802F0E940522C801805E9109089718F07A
:102700000115110571F4C8010E94EB300F900F9074
:102710000F900F900F90DF91CF911F910F910C941C
:10272000F421C8010E94EB300F900F900F900F9092
:102730000F90DF91CF911F910F910C94E3218EEFB9
:1027400089838A831B820E94E5288160782F9D837C
:102750008C8349815A816B818D810E94912E0F90CB
:102760000F900F900F900F90DF91CF911F910F91CD
:1027700008950F931F93CF93DF938C01EB0162EDCC
:1027800071E08C2F0E94C32B892B09F040C0DD27FC
:10279000C653DE4F8881F80110821882833079F0A9
:1027A00048F4813041F1823091F58091D4019091CB
:1027B000D50109C0843051F08530E9F028C08091FE
:1027C000D6019091D7010097B1F01BC08091D8013C
:1027D0009091D9010097A9F42091D2013091D301B1
:1027E0008091D4019091D5012115310541F00097D8
:1027F00041F4C90106C08091D2019091D3010097A4
:1028000031F0DF91CF911F910F910C946613DF91FE
:10281000CF911F910F9108950F931F93CF93DF9343
:1028200000D000D01F92CDB7DEB78C019093C502C7
:102830008093C402011580E21807F8F4C801805E95
:102840009109089718F00115110531F4C8010E948B
:10285000EB300E94FB2105C0C8010E94EB300E94B2
:10286000EA21802F0F900F900F900F900F90DF9123
:10287000CF911F910F910C9465228EEF89838A83EB
:1028800081E08B830E94E5288160782F9D838C8373
:1028900049815A816B818D810E94912E0F900F90FA
:1028A0000F900F900F90DF91CF911F910F9108958E
:1028B000CF93DF93EC010E940C14CE01DF91CF91F6
:1028C0000C9466130F931F93CF93DF938C01862F85
:1028D00062ED71E00E94C32B892BD1F4C091D2012B
:1028E000D091D3012097A1F0F8018081833039F491
:1028F000CE010E945814CE010E94581402C08430A8
:1029000038F0CE01DF91CF911F910F910C945814A4
:10291000DF91CF911F910F9108950F931F93CF9344
:10292000DF938C01EB0162ED71E08C2F0E94C32BD1
:10293000892B09F06DC0DD27F8018081813041F4D9
:102940009185911115C09285992391F082E010C074
:10295000823049F4F8018185811107C08285811197
:1029600006C083E005C086E003C085E001C084E0C6
:10297000C653DE4F88838330B1F028F4813071F084
:10298000823031F045C08430A9F0853079F140C003
:102990008091D4019091D5010097A1F58091D20149
:1029A0009091D30120C08091D6019091D7010097DA
:1029B000E9F028C08091D8019091D901009711F5D4
:1029C0008091D2019091D301009749F00E94581450
:1029D0008091D4019091D501009781F013C080912E
:1029E000D4019091D501009799F00CC08091D2014B
:1029F0009091D301009761F00E9458148091D20108
:102A00009091D301DF91CF911F910F910C940C14F1
:102A1000DF91CF911F910F9108958F929F92AF9266
:102A2000BF92CF92DF92EF92FF920F931F93CF93BB
:102A3000DF93CDB7DEB72A970FB6F894DEBF0FBE8F
:102A4000CDBF07E713E0E12CF12C82E6C82E84E12C
:102A5000D82E9DE8A92E94E1B92E29EB822E23E1F0
:102A6000922EF801D182C082B382A28295828482A2
:102A7000F58AE48ABE016F5F7F4F8E2D0E94C32BC3
:102A8000892B29F489859A85F801938B828BFFEF36
:102A9000EF1AFF0A0A5E1F4F88E0E816F10409F7F3
:102AA0002A960FB6F894DEBF0FBECDBFDF91CF914F
:102AB0001F910F91FF90EF90DF90CF90BF90AF905C
:102AC0009F908F900895CF93C82F811102C06FEF10
:102AD00001C061E083E290E00E948731C11102C031
:102AE0006FEF01C06AE184E290E00E948731C1117A
:102AF00002C06FEF01C061EA85E290E0CF910C94D3
:102B0000873180E00E94631560E086E290E00E94D9
:102B100087310E940E2C0E94B32B81E00C94631528
:102B200083E290E00E947331813081F484E290E08E
:102B30000E9473318A3151F485E290E00E94733132
:102B400091E0813A09F090E0892F01C080E0817026
:102B50000895882311F0FA0101C0FB0109946091E6
:102B6000F401669570E041E050E08CE091E00E9455
:102B7000F831892B19F481E08093C9010E94E5287E
:102B80009093C3018093C20108958091F40180FD68
:102B900006C01092C0011092BF011092C1016E9A3E
:102BA0008EB18F7B9EB190642FB7F894EFEBF1E07C
:102BB00042EC51E04E175F0789F0319168E09EB911
:102BC000000000C037FF8EB9330F000000C000C006
:102BD00000C08EB900C06A9591F7ECCF2FBF8FE58A
:102BE00094E00197F1F700C0000008959091F4017E
:102BF00090FF08C08093C0016093BF014093C10162
:102C00000C94C51508950F931F93CF93DF9300D0B5
:102C10001F92CDB7DEB78C01DC011496EC91F0E089
:102C2000E45DFB4F44918091F40180FF11C0453673
:102C300008F044E69E012F5F3F4F6091F6018091BE
:102C4000F5010E94D0124B8169818A810E94F6159C
:102C5000F80184818F5F84830F900F900F90DF9134
:102C6000CF911F910F9108958091F401282F2695FF
:102C700030E02115310519F48170826005C02630DD
:102C8000310524F081708A608093F4018091F7010E
:102C9000853618F084E68093F7010895CF92DF928D
:102CA000EF92FF926B017C010E943416B701A601DE
:102CB00088E090E0FF90EF90DF90CF900C949931F6
:102CC000EF92FF920F931F93CF93DF9300D01F9249
:102CD000CDB7DEB7F82E062F142FE22E8091F40127
:102CE00080FF31C0E82FE695F0E0E25DFE4F908175
:102CF0009093C8018E7F823081F4453608F044E617
:102D00009E012F5F3F4F602F8F2D0E94D0124B816D
:102D100069818A810E94F61504C0923011F41091E5
:102D2000F701F092F5010093F6011093F701EE2000
:102D300051F06091F4017091F5018091F60190914C
:102D4000F7010E944E160F900F900F90DF91CF91D8
:102D50001F910F91FF90EF900895E4EFF1E0438110
:102D600021E1421B08F440E021E0628181810C9462
:102D70006016E4EFF1E0438121E1420F08F44FEFE8
:102D800021E0628181810C946016E4EFF1E06281C0
:102D900021E1621B08F460E021E0438181810C9411
:102DA0006016E4EFF1E0628121E1620F08F46FEF59
:102DB00021E0438181810C946016E4EFF1E0818190
:102DC00021E04381628188500C946016E4EFF1E0C9
:102DD000818121E043816281885F0C94601680913B
:102DE000F801882319F081508093F8016091F40173
:102DF0007091F5018091F6019091F7010C944E16B7
:102E00008091F801833018F48F5F8093F80160910E
:102E1000F4017091F5018091F6019091F7010C9405
:102E20004E16E4EFF1E080818E7F808360817181B6
:102E3000828193810E944E161092C9012FEF80E784
:102E400092E0215080409040E1F700C000000C94D7
:102E5000C5159091F40190FF36C09170811102C0A8
:102E6000926006C0863010F09A6002C0880F982BDE
:102E70009093F401662351F06091F4017091F50193
:102E80008091F6019091F7010E944E166091F40135
:102E9000669570E041E050E08CE091E00E94F831EE
:102EA000892B19F01092C90102C00E94AF1581E070
:102EB0008093C50120E04091F7016091F601809177
:102EC000F5010C94601608958091F4018695815067
:102ED00009F485E061E00C9429178091F40186954E
:102EE0008F5F863008F081E061E00C942917E4EFF1
:102EF000F1E083E0808311828FEF828384E6838315
:102F0000148260817181828193810C944E160E949B
:102F1000E5282091BB01211104C02091BC0122238E
:102F200021F09093B8018093B7012091BD01211148
:102F300004C02091BE01222321F09093B60180931A
:102F4000B501E0912904F0912A04309749F082E01C
:102F50008093B9010480F581E02D89EB91E009941B
:102F60000895803F39F48091BC0187FF6AC01092B8
:102F7000BC0167C0813F29F48091BC011816BCF3E5
:102F800060C09091BB01823F29F497FF5AC0109214
:102F9000BB0157C0833F19F41916CCF352C090916E
:102FA000BD01893F31F419160CF04BC01092BD01E0
:102FB00048C08A3F19F497FF44C0F8CF8B3F39F4DB
:102FC0008091BE0187FF3DC01092BE013AC08C3F88
:102FD00029F48091BE011816BCF333C0843F21F45C
:102FE0008091BA018E7F17C0853F21F48091BA018C
:102FF0008D7F11C0863F21F48091BA018B7F0BC079
:10300000873F21F48091BA01877F05C0883F31F462
:103010008091BA018F7E8093BA0113C08D3F21F455
:103020008091B4018E7F0BC08E3F21F48091B4015A
:103030008D7F05C08F3F29F48091B4018B7F8093F1
:10304000B4018091BB01811106C08091BC01811146
:1030500002C01092B3018091BD01811106C0809120
:10306000BE01811102C01092B2010895803F21F487
:103070000E943A31819504C0813F29F40E943A317F
:103080008093BC010895823F21F40E943A318195DA
:1030900004C0833F29F40E943A318093BB01089514
:1030A000893F19F40E94183105C08A3F31F40E940B
:1030B000183181958093BD0108958B3F21F40E94C2
:1030C0001831819504C08C3F29F40E9418318093F7
:1030D000BE010895843F21F48091BA01816017C038
:1030E000853F21F48091BA01826011C0863F21F4AE
:1030F0008091BA0184600BC0873F21F48091BA01AE
:10310000886005C0883F31F48091BA018061809366
:10311000BA0108958D3F21F48091B40181600BC004
:103120008E3F21F48091B401826005C08F3F29F465
:103130008091B40184608093B40108958091EA0184
:1031400087FF11C08091E80082FD05C08091F201E7
:103150008111F8CF11C08091E8008B770BC080916E
:10316000F201882349F08091E80080FFF8CF809138
:10317000E8008E778093E8000895982F973068F5DF
:103180009093E900981739F07091EC002091ED00D0
:103190005091F00003C0242F762F50E021FD02C093
:1031A0009F5FECCF3091EB003E7F3093EB0030918E
:1031B000ED003D7F3093ED003091EB0031603093B6
:1031C000EB007093EC002093ED005093F000209101
:1031D000EE0027FDE5CF80E008958F708093E90031
:1031E00081E008952091F0013091F1012617370711
:1031F00048F06115710539F42091E8002E7720938D
:10320000E80001C0B901FC0120E06115710579F108
:103210008091F2018823F1F18530F1F18091E8008D
:1032200083FD3CC08091E80082FD2EC08091E800C3
:1032300080FFEBCF2091F3008091F20090E0922B81
:103240006115710551F08830910538F42191209372
:10325000F100615071090196F3CF21E0089709F060
:1032600020E08091E8008E778093E800CECF211196
:10327000CFCF0AC08091F201882361F0853061F0E0
:103280008091E80083FD0AC08091E80082FFF2CFC0
:1032900080E0089582E0089583E0089581E0089534
:1032A0000895BC0184E00C946228BC0183E00C9476
:1032B00062288091F40180FF07C0869582588F773D
:1032C000833010F40C946D1761E082E00C942917A0
:1032D0008091F301982F9670963011F4886001C0A8
:1032E000877F0C9433211F93CF93DF93CDB7DEB745
:1032F000AA970FB6F894DEBF0FBECDBFEAEEF1E09D
:1033000082EF91E02091F10021938E179F07D1F772
:103310008091EB01833009F463C030F4813071F0A7
:10332000823009F49DC0B4C08A3009F489C08B3062
:1033300009F46EC0893009F0ABC020C08091EA0169
:10334000813A09F0A5C08091E800877F8093E8006A
:103350008091EE019091EF01892B21F468E08FEDCF
:1033600091E003C060E080E090E070E00E94F2181D
:103370008091E8008B778093E8008AC08091EA0111
:10338000813209F085C08091EE019091EF010097A4
:1033900019F0029709F07CC08091E800877F809344
:1033A000E8008091E80082FD05C08091F201811162
:1033B000F8CF6EC02091F3008091F20090E0922B44
:1033C000029731F48091F100813011F0863021F4C0
:1033D0008091F1008093DE018091E8008B7754C0EA
:1033E0008091EA01813A09F053C08091EE019091F9
:1033F000EF01892B09F04CC08091E800877F809312
:10340000E8008091E80080FFFCCF80910D0137C07B
:103410008091EA018132E1F58091EE019091EF0116
:10342000892BB1F58091E800877F8093E8000E94A6
:103430009E188091EC0180930D010E94522128C0BA
:103440008091EA01813221F58091E800877F8093A5
:10345000E8000E949E188091ED018093DD0118C064
:103460008091EA01813AA1F48091E800877F8093FE
:10347000E8008091E80080FFFCCF8091DD0180931F
:10348000F1008091E8008E778093E8000E949E18FA
:103490008091E80083FFEBC18091EA019091EB01FC
:1034A000492F50E04A30510508F0E1C1FA01E059D6
:1034B000FF4F0C94EB31803821F0823809F0D7C1EE
:1034C00008C08091E7019091E801992389F082601A
:1034D0000FC08091EE018F70873008F0C8C18093D3
:1034E000E9008091EB0085FB882780F91092E900C4
:1034F0009091E800977F9093E8008093F1001092FC
:10350000F1007CC1282F2D7F09F0B1C1882319F06B
:10351000823061F0ACC18091EC01813009F0A7C12B
:10352000933009F080E08093E8012EC08091EC0197
:1035300081112AC08091EE018F702FEF280F263065
:1035400008F095C18093E9002091EB0020FF1CC09A
:10355000933021F48091EB00806214C09091EB00D5
:1035600090619093EB0021E030E0A90102C0440F8C
:10357000551F8A95E2F74093EA001092EA00809185
:10358000EB0088608093EB001092E9008091E800E6
:10359000877F8093E8000E949E1869C1811167C1EE
:1035A0001091EC011F778091E3008078812B80934C
:1035B000E3008091E800877F8093E8000E949E18D6
:1035C0008091E80080FFFCCF8091E30080688093C9
:1035D000E300111102C082E001C083E08093F20198
:1035E00046C18058823008F042C12091EC013091F0
:1035F000ED012C3D53E0350779F583E08A838AE2BB
:1036000089834FB7F894DE01139620E03EE051E243
:10361000E32FF0E050935700E49120FF03C0E295C0
:10362000EF703F5FEF708E2F90E0EA3010F0C7969A
:1036300001C0C0968D939D932F5F243149F74FBFF2
:103640008091E800877F8093E8006AE270E0CE0115
:1036500001960E94F218C0C08091EE019091EF0196
:10366000432F552743305105B1F068F441305105DF
:1036700009F40CC14230510509F0F9C08BE590E026
:10368000EFE0F6E057C04132510589F14232510571
:1036900009F43CC0ECC0C901992781309105B9F00B
:1036A00070F082309105D9F0039709F0E0C0ECE7A3
:1036B000F6E0E4918E2F90E0ECE7F6E038C0ECEC19
:1036C000F6E0E4918E2F90E0ECECF6E030C0E2EB17
:1036D000F6E0E4918E2F90E0E2EBF6E028C0EAE914
:1036E000F6E0E4918E2F90E0EAE9F6E020C0833026
:1036F000910508F0BCC0880F991FFC01E35CFE4FE8
:103700000190F081E02D89E090E014C083309105B4
:1037100008F0ADC0FC01EE0FFF1FE95CFE4F019009
:10372000F081E02DDC01AC5CBE4F8C9190E0009705
:1037300009F49DC02091E800277F2093E8002091A4
:10374000F0013091F1012817390708F4C90140E070
:10375000009789F12091F201222309F43DC0253020
:10376000D9F12091E80023FD37C02091E80022FD27
:103770002FC02091E80020FFEBCF4091F300209173
:10378000F20030E0342B009759F02830310540F436
:1037900044914093F100319601972F5F3F4FF3CF53
:1037A00041E02830310509F040E02091E8002E7713
:1037B0002093E800CDCF4111CDCF0AC08091F20116
:1037C000882351F0853041F08091E80083FD04C0EA
:1037D0008091E80082FFF2CF8091E8008B778093A0
:1037E000E80045C0803809F042C08091E800877F3A
:1037F0008093E8008091E9018093F1008091E800D6
:103800008E77C7CE811133C08091EC019091ED018C
:103810009927029764F58091E800877F8093E800FC
:103820001091EC011093E9010E949E18111106C03D
:103830008091E30087FD02C081E001C084E08093B5
:10384000F20142E061EC81E00E94BD1842E261ECCD
:1038500084E00E94BD1842E261EC82E00E94BD1843
:1038600042E260EC83E00E94BD188091F2018091F9
:10387000E80083FF10C08091E800877F8093E80014
:103880008091EB0080628093EB0005C082E190E0C4
:10389000EAE6F6E04FCFAA960FB6F894DEBF0FBE69
:1038A000CDBFDF91CF911F9108951F920F920FB658
:1038B0000F9211242F933F934F935F936F937F93B6
:1038C0008F939F93AF93BF93CF93DF93EF93FF9328
:1038D000C091E900CF708091EC00D82FD17080FDAD
:1038E000D0E81092E9008091F000877F8093F0008B
:1038F00078940E9473191092E9008091F00088601A
:103900008093F000CD2BCF70C093E900FF91EF9131
:10391000DF91CF91BF91AF919F918F917F916F91E7
:103920005F914F913F912F910F900FBE0F901F907D
:103930001895E8EDF0E080818E7F80831092E200A0
:103940001092DA001092E100A0EEB0E08C9181605C
:103950008C9380818F77808319BCA7EDB0E08C9128
:103960008E7F8C9380818F7E80831092DC010895FE
:10397000CF92DF92EF92FF920F931F93CF93DF933B
:10398000C8EDD0E088818F7E8883E7EDF0E080810C
:103990008160808384E082BF81E08093DC01888144
:1039A0008E7F888302EE10E0F80110821092DA0018
:1039B00081EEC82ED12CF601108288818F77888302
:1039C00088818068888388818F7D888319BC109264
:1039D000F2011092E9011092E8011092E70190EED5
:1039E000E92EF12CF70180818B7F808388818160B3
:1039F000888342E060E080E00E94BD18F60180818B
:103A00008E7F8083F80180818160808380818860DF
:103A10008083F70180818E7F8083888180618883A5
:103A2000DF91CF911F910F91FF90EF90DF90CF909A
:103A300008951F920F920FB60F9211242F933F9368
:103A40004F935F936F937F938F939F93AF93BF93A6
:103A5000EF93FF938091E10082FF09C08091E20023
:103A600082FF05C08091E1008B7F8093E10080910F
:103A7000DA0080FF2AC08091D80080FF26C08091A4
:103A8000DA008E7F8093DA008091D90080FF18C021
:103A900080E189BD82E189BD09B400FEFDCF81E0EE
:103AA0008093F2018091DC0181110FC00E94991C6A
:103AB0000E94B81C8091E20084608093E20005C0FF
:103AC00019BC1092F2011092DC018091E10080FF9C
:103AD00017C08091E20080FF13C08091E2008E7FCA
:103AE0008093E2008091E20080618093E200809107
:103AF000D80080628093D80019BC85E08093F201E1
:103B00008091E10084FF30C08091E20084FF2CC0EE
:103B100080E189BD82E189BD09B400FEFDCF8091BD
:103B2000D8008F7D8093D8008091E1008F7E8093B4
:103B3000E1008091E2008F7E8093E2008091E200BC
:103B400081608093E2008091E901882311F084E094
:103B500007C08091E30087FD02C081E001C083E0DF
:103B60008093F2018091F2018091E10083FF27C0F0
:103B70008091E20083FF23C08091E100877F8093E2
:103B8000E10082E08093F2011092E9018091E1006E
:103B90008E7F8093E1008091E2008E7F8093E2002F
:103BA0008091E20080618093E20042E060E080E08A
:103BB0000E94BD188091F00088608093F000FF9112
:103BC000EF91BF91AF919F918F917F916F915F9195
:103BD0004F913F912F910F900FBE0F901F9018950E
:103BE0002091E4003091E50095E64091EC00842FAF
:103BF000817040FF23C08091E80080FD1DC080914E
:103C0000F201882399F0853099F08091EB0085FDD1
:103C100011C04091E4005091E5002417350729F3C5
:103C2000915011F09A01E1CF84E0089582E0089567
:103C300083E0089581E0089580E008954091E800D0
:103C400042FFDDCF0895EF92FF920F931F93CF9322
:103C5000DF937C018B010E94F01D811119C0E701E7
:103C600001151105A1F08091E80085FD0AC0809141
:103C7000E8008E778093E8000E94F01D882381F38E
:103C800007C089918093F10001501109E9CF80E0CC
:103C9000DF91CF911F910F91FF90EF900895CF93F7
:103CA0002091F2012430F9F4C091E900CF703091F5
:103CB000EC00232F217030FD20E8C22B22E020935E
:103CC000E9002091E80020FF0BC040E050E060E2F6
:103CD00070E00E94231E8091E8008E778093E800B8
:103CE000CF70C093E900CF91089580E090E00E94EA
:103CF000572980E090E00E944129109274031092AD
:103D00006A020E940727E9EBF1E086E0DF011D92DD
:103D10008A95E9F71092B3011092B2011092B401A2
:103D20000C948717CF92DF92FF920F931F93CF933C
:103D3000DF936C010091F30180916E02082BC7E0C4
:103D4000D0E010E0C8010C2E02C0959587950A942A
:103D5000E2F780FD04C02197A8F7F12C09C0FC2EE2
:103D6000B6018C2F0E94D12C0E94CE24019799F38A
:103D70008F2DDF91CF911F910F91FF90DF90CF900A
:103D80000895CF93DF93EC010E94921EBE010E9422
:103D9000D12C0E94CE24DF91CF910895FC01868121
:103DA0009781009719F00E94CE2404C080819181F0
:103DB0000E94C11E292F2F70E92FE295EF704E2F20
:103DC00050E0FA013297EE30F105B8F4E658FF4FB3
:103DD0000C94EB31803F99F018F4883E70F40FC0DA
:103DE000843F59F40CC0883E50F0813F31F407C045
:103DF000822F869586958695089580E0089581E0C6
:103E000008959F92AF92BF92CF92DF92EF92FF926E
:103E10000F931F93CF93DF93CDB7DEB765970FB6A0
:103E2000F894DEBF0FBECDBF8C0185E0F801DE0146
:103E3000519601900D928A95E1F7F801E2809091F8
:103E40001C0260911D0240911F02509120024115F9
:103E5000510531F06F3F31F481E09F3F19F403C009
:103E600081E001C080E0F82FF1709F2E80FD4EC1EF
:103E7000F80130812181C380D4807CE1A72E72E0DB
:103E8000B72EF0901E02F601E41BF50BFF2009F49B
:103E9000EFC080912102E83CF10508F0AAC0482F4C
:103EA000407F09F05AC062131BC0931319C0609180
:103EB000220270912302F801468157816417750729
:103EC00079F4FE2CE1100CC08F7080618093210288
:103ED000C5010E942D0C80912102F801858353C1F8
:103EE000CD2831F02F3F31F481E03F3F19F403C07A
:103EF00081E001C080E080FD03C081E08E2502C02A
:103F000080E090E0F82FF170FF2E80FF1CC08091C0
:103F1000650240912402841709F413C190E0FC016A
:103F200053E0EE0FFF1F5A95E1F7EB5DFD4F518116
:103F3000251306C05081531303C05281E51203C0FC
:103F400001968770E8CFFE2CEE2009F41CC1809109
:103F5000210281608093210258C062130FC0931325
:103F60000DC04091220250912302F8012681378131
:103F70004217530719F4EE2009F4A7C0C8010E94A4
:103F8000CE1E882381F1EE2071F120912102822F33
:103F900082958F7090E00297A4F080911C0290911E
:103FA0001D029A8789871B86DD86CC862E878091A5
:103FB000220290912302988B8F87CE0109960E944E
:103FC0002D0C88E0F801ACE1B2E001900D928A95E9
:103FD000E1F70E94AB270AC06217C9F0C8010E942E
:103FE000CE1E811127C0C8010E942D0CFF24F3941E
:103FF000CAC0482F407F81F78CE192E00E942D0CCF
:1040000088E0F50111928A95E9F7F12CBCC0931371
:10401000E5CF4091220250912302F8012681378199
:1040200042175307D9F6E110D9CF8583C8010E9402
:104030002D0C66C0EE20B9F220912102822F8295CC
:104040008F7090E002970CF4BCCF80911C0290918D
:104050001D029A8389831B82DD82CC822E8380910C
:1040600022029091230298878F83CE010196A7CFD9
:10407000E83CF10508F044C0FE2CEE2009F4B3CF73
:10408000621330C093132EC020912202309123027C
:10409000F801868197812817390721F5909121022F
:1040A00090FD17C0892F82958F70282F30E0211541
:1040B000310579F095832F30310541F08F5F982FCE
:1040C0009295907F85818F70892B8583C8010E948E
:1040D0002D0C88E0F801ACE1B2E001900D928A95D8
:1040E000E1F751C0C8010E94CE1E81116ACF8091B4
:1040F0002102816080932102C8010E942D0C43C0DF
:1041000088E0F50111928A95E9F73DC0EE2009F4A7
:104110006ACFC8010E94CE1EF82E882309F463CF0F
:1041200088E0F801ACE1B2E001900D928A95E1F7E8
:1041300080911C0290911D020E94C11E0E94AB271B
:1041400022C0398B2A8B89899A890E94C11E292F06
:1041500022952F70223028F49F7039F0811105C00C
:104160000BC0243028F49F7049F4805E883020F022
:10417000C8010E942D0C9F2CF92C05C0F8019581D7
:10418000907F99F7F9CF8F2D65960FB6F894DEBF23
:104190000FBECDBFDF91CF911F910F91FF90EF9098
:1041A000DF90CF90BF90AF909F9008959E3F61F1B8
:1041B00021E1929F800D1124682F66956695669582
:1041C000982F977083E0689FB001112440E050E081
:1041D00080E0FB01E40FF51FE750FE4F208130E047
:1041E000092E02C0369527950A94E2F721703327ED
:1041F000042E01C0220F0A94EAF7822B4F5F5F4F13
:104200004330510531F7089580E008959E3F51F104
:1042100021E1929F800D1124E82FE695E695E69521
:10422000877051E001C0550F8A95EAF783E0E89F57
:10423000F0011124E750FE4F20E030E070E04081B3
:10424000CB01022E02C0969587950A94E2F7817001
:10425000819584278523842781932F5F3F4F2330C7
:10426000310569F708958093F3010C94751E21E0E0
:1042700030E001C0220F8A95EAF720958091F30182
:1042800082230C94332121E030E001C0220F8A9573
:10429000EAF78091F301822B0C94332180936E0214
:1042A0000C94751E1092730386E0E6E1F2E0DF01E4
:1042B0001D928A95E9F70C94751ECF93DF93CDB7C5
:1042C000DEB760970FB6F894DEBF0FBECDBF29876B
:1042D0003A874B875C876D877E878F87988BCE0167
:1042E00009960E94011F811151C088E0FE01399694
:1042F000DE01119601900D928A95E1F779856A8524
:104300004C855D854115510531F06F3F31F481E0F9
:104310007F3F19F403C081E001C080E080FD36C01A
:10432000A0912402B0E0CD010196877099272091D9
:10433000650230E08217930781F179836A835D8398
:104340004C8393E0AA0FBB1F9A95E1F7AB5DBD4F7D
:1043500098E0FE01319601900D929A95E1F78093D5
:1043600024020E94A12712C028E0829FC0011124CC
:104370008B5D9D4F0E94011F8823E1F080916502B3
:1043800090E001968770992780936502809165027D
:10439000909124028913E8CF0DC00E9452211092FF
:1043A000240210926502ECE1F2E088E0DF011D9248
:1043B0008A95E9F760960FB6F894DEBF0FBECDBFC1
:1043C000DF91CF910895882321F00E94F9260C9463
:1043D00007270895882339F090917403892B8093DF
:1043E00074030C9407270895882321F00E94002766
:1043F0000C9407270895882339F090917303892B33
:10440000809373030C9407270895882309F45CC0F4
:10441000823869F40E946D2981FF56C069E384E106
:1044200092E00E9427290E94072769E30EC0833883
:1044300091F40E946D2980FF47C063E584E192E01A
:104440000E9427290E94072763E584E192E00E94E9
:104450001A290C940727843869F40E946D2982FF79
:1044600033C067E484E192E00E9427290E94072775
:1044700067E4EBCF9CEF980F913A10F4682FE5CFEB
:1044800090E2980F983050F4877091E001C0990F36
:104490008A95EAF7892F0E940027DBCF9BE5980FCA
:1044A000933020F480E090E00C94572998E5980F21
:1044B000973120F480E090E00C944129803F20F077
:1044C0000E94B1170C9487170895CF93882309F49D
:1044D0009EC0C82F8238B1F40E946D2981FD97C01B
:1044E00069E384E192E00E9427290E9407272FEFC9
:1044F00081EE94E0215080409040E1F700C0000040
:1045000069E317C08338E1F40E946D2980FD7FC004
:1045100063E584E192E00E9427290E9407272FEF9C
:1045200081EE94E0215080409040E1F700C000000F
:1045300063E584E192E00E941A29CF910C94072749
:104540008438B1F40E946D2982FD61C067E484E182
:1045500092E00E9427290E9407272FEF81EE94E026
:10456000215080409040E1F700C0000067E4E1CFB7
:104570008CEF8C0F813A80F4E6E1F2E08CE192E07E
:104580002191C217E1F18E179F07D1F76C2F84E1BB
:1045900092E00E942729D1CF80E28C0F883068F406
:1045A000C77081E090E001C0880FCA95EAF790914A
:1045B0007303892B80937303C0CFEBE5EC0FE330DB
:1045C00040F4F0E0ED5BFE4F808190E0CF910C94E1
:1045D0005729E8E5EC0FE73150F4F0E0EE0FFF1F4C
:1045E000EA5BFE4F80819181CF910C944129C03FBD
:1045F00070F08C2F0E943618CF910C9487176C2F77
:1046000084E192E00E941A290E940727BFCFCF9130
:1046100008951F93CF93DF93182F893319F0C0E0CB
:10462000D0E002C0C0E5D0E0812F0E946522209733
:1046300041F08FE99FE00197F1F700C0000021975A
:10464000F6CF812FDF91CF911F910C94052280E04E
:1046500008959091760192FF0DC0282F287128307F
:1046600019F4877F846006C0282F2471243011F448
:104670008B7F886093FF0DC0282F2871283119F493
:10468000877E846106C0282F2471243111F48B7E2B
:1046900088612091770120FF0DC0382F38713830A4
:1046A00019F4877F816006C0382F3171313011F4E1
:1046B0008E7F886021FF0DC0282F2871283119F4C2
:1046C000877E816106C0282F2171213111F48E7EF1
:1046D000886194FD877E0895F894E82FE295EF7045
:1046E000F0E031A1282F2F7081E090E001C0880F09
:1046F0002A95EAF7982F9095932391A392A1892B5D
:1047000082A3789408954F925F926F927F92AF92B6
:10471000BF92CF92DF92EF92FF920F931F93CF93AE
:10472000DF93CDB7DEB760970FB6F894DEBF0FBE4C
:10473000CDBFAE014F5F5F4F7A0180E1DA011D927C
:104740008A95E9F709E111E05A01CC24C394D12CF0
:10475000F80180818F3F09F454C0F894E82FE29566
:10476000EF70F0E021A18F70A60102C0440F551F29
:104770008A95E2F7CA01922F982B91A392A1809576
:10478000892382A3789400C0EDE1F1E041E050E09C
:1047900060E070E0412C512C320181918F3F99F003
:1047A000A82FA295AF70B0E090962C9130E08F705A
:1047B000D90102C0B595A7958A95E2F7A0FD03C07F
:1047C000DB01CA0103C080E090E0DC01482A592ADD
:1047D0006A2A7B2A440F551F661F771FB1E0EE320D
:1047E000FB07D9F6F80180818F3F11F00E946C23FE
:1047F000F0EAFA95F1F7D5014D925D926D927C92B7
:1048000013970F5F1F4FB4E0AB0EB11CE1E00D3109
:104810001E0709F09DCF40E150E0B70188E791E025
:104820000E94053201E0009709F400E0892B89F02D
:1048300080E1F701A8E7B1E001900D928A95E1F7D8
:1048400081E0809371020E94E5289093700280932A
:104850006F02809171028823D1F080916F02909154
:1048600070020E94D628059790F0E8E7F1E0A1EAEF
:10487000B1E041915191619171914D935D936D932F
:104880007D9321E0E838F207A1F710927102809140
:104890000E0190910F01019661F110E036E1732E47
:1048A0001FC0789EF001799EF00D1124E958FC4F4D
:1048B000C288D388C114D10419F428ECC22ED12C9B
:1048C000789E5001799EB00C1124C50189589C4FE7
:1048D0007C01DC0116968C91169781110FC01F5F29
:1048E000812F90E020910E0130910F012817390798
:1048F000C4F680911001811113C03AC01D968D91AC
:104900009C911E970E94D628C816D90640F7C70169
:104910000E94C029C50183589C4F0E947929DFCF8E
:1049200080916E0390916F03009711F10E94D62839
:104930002091C8023091C90228173907C8F4909114
:104940006C0380916D03981759F00E94042B10920C
:10495000C9021092C80210926F0310926E0308C031
:104960000E94862A10926F0310926E030E94E52A1D
:10497000802F60960FB6F894DEBF0FBECDBFDF91DB
:10498000CF911F910F91FF90EF90DF90CF90BF904C
:10499000AF907F906F905F904F900895CF93DF938B
:1049A0008238910569F1B0F48133910509F46FC043
:1049B00048F48932910509F465C08A32910509F4F9
:1049C0006BC08AC08533910509F457C089339105BE
:1049D000B9F082C0833E910571F138F4803E9105B3
:1049E000B1F0823E910511F177C0863E9105B9F193
:1049F000873E9105C9F1843E910509F06DC024C040
:104A00002091760120FD53C021FD51C065C08091E9
:104A1000760180FD46C08091770180FF48C080917B
:104A2000760184FD50C183EE90E04FC18091760104
:104A300082FF3AC0F4CF8091760182FD35C080912B
:104A4000770180FD34C0EBCF8091770181FF35C0C5
:104A50008091760184FD37C187EE90E036C1809168
:104A6000760183FF27C0F4CF8091760183FD22C0B9
:104A70008091770181FD21C0EBCF8091760185FD8A
:104A80001FC021C08091760185FD1DC019C0809195
:104A9000760186FD1BC01DC08091760186FD19C080
:104AA00015C089E390E011C182EE90E00EC180EE66
:104AB00090E00BC186EE90E008C184EE90E005C165
:104AC00089E290E002C185E390E0FFC08AE290E0D5
:104AD000FCC081E390E0F9C0811531E5930708F04F
:104AE00069C0811540E59407F0F09C0174E03695AB
:104AF00027957A95E1F7922F9370482F437021E024
:104B000030E002C0220F331F4A95E2F73C68392B90
:104B1000982F9F709695969540E2949FC00111241E
:104B2000822B932BD2C0883E910568F5803E91057B
:104B300008F0CBC0883A9105B8F4853A910548F061
:104B4000855AE82FF0E0ED5BFE4F808190E09064A5
:104B5000BCC08130910509F4B3C008F4B4C08430FE
:104B6000910508F4B0C0B1C08F3B910508F0ABC00F
:104B7000885AE82FF0E0EE0FFF1FEA5BFE4F8081BE
:104B800091819464A2C0811520E2920758F48115A6
:104B900031E0930708F099C0803F910508F493C075
:104BA000906593C0811540E4940708F48CC09F7011
:104BB000906A8BC0811525E5920708F042C08115E7
:104BC00034E5930728F0982F8827846F906A7DC07A
:104BD000811543E59407B0F09C012370332741E031
:104BE00050E002C0440F551F2A95E2F7282F269562
:104BF000269580E2289F90011124CA01822B932BD5
:104C00009A6863C0811522E5920728F4982F8827B7
:104C1000816F906A5AC09C012370332741E050E0B5
:104C200002C0440F551F2A95E2F7282F2695269596
:104C300080E2289F90011124CA01822B932B9C684B
:104C400044C0EC01811539E59307A8F48115984516
:104C500028F09C2F8827806F906A37C0C11586E5A1
:104C6000D80788F58C2F0E9429238F7190E0982F08
:104C7000882790622AC081152AE5920790F48C2F2C
:104C80008F700E94292394E0D695C7959A95E1F7F5
:104C9000CF70D0E0DC2FCC27D0699E01282BC90132
:104CA00014C090568115904270F48D2F8F710E9420
:104CB0002923282F2F71CE0199279062922B05C0AE
:104CC00081E090E002C080E090E0DF91CF91089514
:104CD000CF9384E090E00E947331C82F82E290E08D
:104CE0000E9473312C2F30E0A901582BCA01CF91BB
:104CF000089580E090E00E9481318A3E9E4F11F439
:104D00000C94901580E008956AEE7EEF80E090E0CC
:104D10000E94A53160E082E090E00E94873160E06F
:104D200083E090E00E94873110926E0260E084E0A0
:104D300090E00E94873160E082E290E00E9487313B
:104D400060E085E090E00E94873160E086E090E0DE
:104D50000E9487316FEF87E090E00E94873140E04A
:104D600050E0BA0188E090E00E94993160E08DE067
:104D700090E00E94873140E050E0BA0188E190E085
:104D80000E94993160E087E190E00E94873140E025
:104D900050E0BA018CE190E00E94993160E070E04F
:104DA00080E290E00E94A53140E050E0BA0188E145
:104DB00090E00E94993180E00E9463150E94811565
:104DC00040E050E0BA018FE090E00E94993140E06D
:104DD00050E0BA0183E190E00C94993180916D022A
:104DE000882331F010926D0210926C0210926B02C7
:104DF0000895809590917403892380937403089596
:104E00008095909173038923809373030895909103
:104E1000730380917403892B90916A02892B80938C
:104E2000140280916D02882311F10E94E5282091DF
:104E30006B0230916C02821B930B8838934110F007
:104E40000E94EE269091140280916D02892B80932E
:104E50001402E6E1F2E097E080E0915029F0219120
:104E60002223D9F38F5FF9CF81110E94EE26E091C2
:104E70002904F0912A04309731F00280F381E02D6B
:104E800084E192E0099408951092690210926802F8
:104E90001092670208952091690280958223809381
:104EA0006902982F977099F430E0482F082E000C73
:104EB000550B2417350759F09091770192FD07C0E3
:104EC0008595859585950E9437210C9444270895F2
:104ED000CF93C0917701C2FB992790F9981799F069
:104EE00080FBC2F9C09377016091760184E090E085
:104EF0000E9487316C2F82E290E00E94873182E02D
:104F0000CF910C944B27CF9108959091770192FD0A
:104F100010C098E0899F90011124262B20936902EC
:104F20000E9443210E94E5289093680280936702C3
:104F300008950C94432180916602811110926602BB
:104F400008958091650290912402891719F08F5F6E
:104F50008770FBCF08951F93CF93DF938091210239
:104F600082958F7009F05CC080911E02882309F43D
:104F700057C0809165021091240260911C027091CB
:104F80001D02C0911F02D091200291E06F3F09F0F5
:104F900090E0292F811709F443C0209721F07F3F2B
:104FA00021F030E003C031E001C0322F90E030FD4D
:104FB00034C0FC0133E0EE0FFF1F3A95E1F7DF014B
:104FC000AB5DBD4F11963C911197371326C03C91B4
:104FD000361323C012963C91129731111EC01396BE
:104FE0004D915C9114974C1B5D0B483C5105A8F406
:104FF000809121028F70806180932102E65DFD4FD8
:1050000080818F70806180838CE192E00E942D0C02
:10501000DF91CF911F910C94A12701968770BACF91
:10502000DF91CF911F9108958091DE01089524E0D2
:105030002093E9002FEF3091E800215035FD06C0A4
:1050400035ED3A95F1F700002111F5CF2091E800F8
:1050500025FF0BC040E050E066E070E00E94231E98
:105060008091E8008E778093E8000895CF93DF93D6
:1050700021E02093E9002FEF3091E800215035FD29
:1050800006C035ED3A95F1F700002111F5CF2091DA
:10509000E80025FF14C0EC0140E050E068E070E05B
:1050A0000E94231E8091E8008E778093E80088E0BC
:1050B000FE01AFEDB1E001900D928A95E1F7DF912D
:1050C000CF91089580933204709334046093330435
:1050D0008091F2018430F9F48093E9008FEF909190
:1050E000E800815095FD06C095ED9A95F1F7000016
:1050F0008111F5CF8091E80085FF0DC040E050E0C0
:1051000063E070E082E394E00E94231E8091E80057
:105110008E778093E800089581E08093E00080E23C
:105120008093D8001092C9008FE19EE40197F1F7B7
:1051300000C0000087E090EBDC0180933504909381
:105140003604A0933704B09338049CE088E10FB68E
:10515000F894A895809360000FBE90936000FFCFF5
:1051600078941F920F920FB60F9211248F939F93F2
:10517000AF93BF9380912E0490912F04A09130049F
:10518000B09131040196A11DB11D80932E0490931E
:105190002F04A0933004B0933104BF91AF919F913D
:1051A0008F910F900FBE0F901F9018959C014FB7D5
:1051B000F89480912E0490912F04A0913004B09126
:1051C00031044FBF821B930B08952FB7F894809141
:1051D0002E0490912F04A0913004B09131042FBF80
:1051E00008951F920F920FB60F9211248F939F93E1
:1051F000AF93BF9380912D04811113C080912E0431
:1052000090912F04A0913004B09131044196A11DDA
:10521000B11D80932E0490932F04A0933004B0937B
:105220003104BF91AF919F918F910F900FBE0F905E
:105230001F9018959C012A5F3F4FFC014281461345
:1052400001C01282019682179307B9F708959C0155
:10525000FC0132969FEF80E04191461789F09F3F15
:1052600019F4411101C0982F8F5F8630A9F79F3F35
:1052700039F0F901E90FF11D97FDFA956283089560
:10528000089520912B0430912C042817390771F0D0
:1052900090932C0480932B04E0912904F0912A042C
:1052A000309721F00084F185E02D09940895209134
:1052B0002704309128042817390771F090932804A7
:1052C00080932704E0912904F0912A04309721F07B
:1052D0000680F781E02D09940895E0912904F0916A
:1052E0002A04309721F00190F081E02D099480E0AC
:1052F0000895EF92FF920F931F93CF93DF93FC01DA
:105300002285211136C0EC01E380F480F7E5FF1A15
:1053100026E12E9DC0012F9D900D1124DC01A9587E
:10532000BC4F1496ED91FC91159783589C4F309784
:1053300029F054966D917C915597099586E18E9D43
:1053400080018F9D100D112409581C4FF801878191
:105350000E940027F80180850E94F9260E940727F5
:10536000188219861B861E821D8210927603109267
:105370007503DF91CF911F910F91FF90EF900895EA
:10538000CF93DF93FC01218921111CC0EC0181E046
:10539000818B909173038781892B80937303909104
:1053A00074038085892B809374030E940727EA8108
:1053B000FB81CE010696309729F06C897D89DF91BB
:1053C000CF910994DF91CF9108950F931F93CF93BD
:1053D000DF93C42FD22FFC0182818823C9F0409330
:1053E00072030E94E528909371038093700380E21A
:1053F0008C0F883008F057C0C77081E001C0880F5B
:10540000CA95EAF7DF91CF911F910F910C94FB2180
:1054100080917203481330C08091700390917103A2
:105420000E94D628883C910538F510E21D0FCD1753
:10543000B9F080E28C0F883040F4C77081E001C081
:10544000880FCA95EAF70E94F421183028F581E008
:105450009D2F977001C0880F9A95EAF70E94FB2153
:10546000802F0E9409231830F0F4D77081E001C02A
:10547000880FDA95EAF70AC080E28C0F883098F43A
:10548000C77081E001C0880FCA95EAF7DF91CF911C
:105490001F910F910C94F421802FDF91CF911F91D8
:1054A0000F910C940923DF91CF911F910F910895D3
:1054B000BC0140916C0380916D03942F981729F1E2
:1054C000292F30E0F901EE0FFF1FEC59FC4F01903E
:1054D000F081E02DE617F70799F487E0869FF00149
:1054E000879FF00D1124E45DFC4F81E084839413C9
:1054F0000CC02F5F3F4F2370332720936C03089518
:105500002F5F3F4F922F9370D9CF08950F931F9322
:10551000CF93DF938091CB02882309F451C0C091CF
:10552000CA021CE08091CB02C81708F045C001E018
:105530000C0F0093CA02D0E01C9FF0011D9FF00DDC
:105540001124E453FD4F9081818123813481232BE9
:1055500031F08F3F31F481E09F3F19F403C081E0C7
:1055600001C080E080FD26C01C9FD0011D9FB00DB2
:105570001124A453BD4F16968D919C911797892B9A
:1055800031F418968D919C911997019651F42081D0
:1055900031814281538164817581868197810E9426
:1055A0005D211C9FF0011D9FF00D1124E453FD4F60
:1055B00014821382C02FB6CF1092CB021092CA026F
:1055C000DF91CF911F910F9108951092C90210920F
:1055D000C802ECE2F3E08581811102C014821682D8
:1055E000379683E0E436F807B1F7089510926F0319
:1055F00010926E031092100180916D0380936C03E2
:105600000E94E52A0C94862A3F924F925F926F92F5
:105610007F928F929F92AF92BF92CF92DF92EF9242
:10562000FF920F931F93CF93DF93C0916C0397E08A
:10563000892E01E010E02CE0322E3EEF932E442420
:10564000439480916D03C81709F478C0D0E0FE013F
:10565000EE0FFF1FEC59FC4F80819181889ED00195
:10566000899EB00D1124A45DBC4F14962C91149703
:10567000211161C05090CB02ECECF2E020E030E070
:10568000712C5D01251508F054C0E284F384D50126
:10569000CD90DC906FEF7FEF612C462D50E0DA016A
:1056A000AA0FBB1FAC0DBD1D0D90BC91A02D109776
:1056B00031F0EA16FB0609F4BA016394EECF6F3FAE
:1056C000BFEF7B0791F1D80102C0AA0FBB1F6A95FB
:1056D000E2F77A2AB80102C0660F771F6A94E2F7F0
:1056E000AB0141505109672D70E046175707D9F4B7
:1056F000329EF001339EF00D1124E453FD4F889E3D
:10570000D001899EB00D1124A45DBC4F12962D913D
:105710003C9113973783268390829182918780876B
:1057200015964C9206C0148213822F5F3F4F3C9611
:10573000A9CF0E94582A2196C37083CF0E94862A3F
:10574000DF91CF911F910F91FF90EF90DF90CF905D
:10575000BF90AF909F908F907F906F905F904F9091
:105760003F900C94E52ACF93DF93C7EED2E060E040
:10577000CE010E9487312196C11584E0D807B9F780
:10578000DF91CF910895883080F49B01982F8AE0B3
:10579000989FB0011124695B7D4F4AE050E0C90138
:1057A0000E94633180E090E008958FEF9FEF0895AD
:1057B0000F931F93CF93DF93843058F5643048F5EF
:1057C000413138F521159CE5390731F4E091C202E9
:1057D000F091C302EF2BE9F08901C42FD0E0CC0F88
:1057E000DD1F92E2699FC00DD11D112498E8899FA9
:1057F000C00DD11D1124612FCE0187960E948731E3
:10580000602FCE018896DF91CF911F910F910C945C
:105810008731DF91CF911F910F9108956F927F9201
:105820008F929F92AF92BF92CF92DF92EF92FF92B0
:105830000F931F93CF93DF93CDB7DEB764970FB667
:10584000F894DEBF0FBECDBFA090C202B090C302DD
:1058500081E090E09093C3028093C202612CC12C3E
:10586000D12C712CE12CF12C00E010E046018E0CC3
:105870009F1CF801EE0FFF1FE80DF91DE053F94FD3
:1058800025913491402F672D862D0E94D82B0F5FD4
:105890001F4F0131110569F782E2E80EF11C739484
:1058A000E4E07E12E1CFF8E8CF0ED11C639484E0EF
:1058B0006812D7CF1A8219821C821B821E821D8217
:1058C00018861F8288EC90E09A87898707E412E0A7
:1058D0004AE050E0B801CE0101960E94AB31065F6C
:1058E0001F4F0739E2E01E0799F77E01FBE0EF0E3C
:1058F000F11C8AE0F70111928A95E9F74AE050E03D
:10590000B801C7010E94AB31065F1F4F073EF2E0AE
:105910001F07A1F7B092C302A092C20264960FB60D
:10592000F894DEBF0FBECDBFDF91CF911F910F91D5
:10593000FF90EF90DF90CF90BF90AF909F908F90AF
:105940007F906F9008950F931F93CF93DF938430D0
:1059500008F56430F8F44131E8F4C42FD0E0CC0FFE
:10596000DD1F22E2629FC00DD11D112438E8839F04
:10597000C00DD11D1124CE0187960E94733190E095
:10598000182F0027CE0188960E9473319801282B8A
:10599000C90102C080E090E0DF91CF911F910F918B
:1059A0000895462F2091C6023091C702232B91F40F
:1059B0007E3F39F46E3F71F48091C4029091C5022C
:1059C0000895843038F4743028F4613118F4672F66
:1059D0000C94A32C80E090E00895CF92DF92EF9298
:1059E000FF920F931F93CF93DF93CDB7DEB72A9724
:1059F0000FB6F894DEBF0FBECDBF80E5E2E7F2E060
:105A0000DF011D928A95E9F788E3ECE2F3E0DF011C
:105A10001D928A95E9F782E7C82E82E0D82E7F0191
:105A200007E912E0F701D182C0824AE050E0B801F4
:105A3000CE0101960E94633188E0FE013196D601C5
:105A400001900D928A95E1F789859A85D701139681
:105A50009C938E931297BAE0CB0ED11CE7E0EE0E2A
:105A6000F11C065F1F4F073EF2E01F07D9F62A968A
:105A70000FB6F894DEBF0FBECDBFDF91CF911F915F
:105A80000F91FF90EF90DF90CF9008950F931F93A9
:105A90000E946D2981FF55C08091F401816080933F
:105AA000F40161E086950E94291740E06FEF80E0E5
:105AB0000E94F6158091F30190E0A0E0B0E0AC0107
:105AC000BD01F4E07695679557954795FA95D1F71E
:105AD000411551056105710521F4AC01BD0180E05E
