:100000000C947B030C94C2030C94C2030C94C203A3
:100010000C94C2030C94C2030C94C2030C94C2034C
:100020000C94C2030C94C2030C9462280C943629DD
:100030000C9417200C94C2030C94C2030C94C203BA
:100040000C94C2030C94C2030C94C2030C94C2031C
:100050000C94C2030C946E200C94C2030C94C20343
:100060000C94C2030C94C2030C94C2030C94C203FC
:100070000C94C2030C94C2030C94C2030C94C203EC
:100080000C94C2030C94C2030C94C2030C94C203DC
:100090000C94C2030C94C2030C94C2030C94C203CC
:1000A0000C94C2030C94C2030C94C20324002500D8
:1000B000260029002B0014001A0008001500170064
:1000C0001C0018000C001200130031003200210047
:1000D0002200230000003900040016000700090078
:1000E0000A000B000D000E000F00330000002A0074
:1000F0001E001F0020005200E10000001D001B0038
:100100000600190005001100100036003700380005
:10011000E50027002700500051004F00E000E300F9
:10012000E200000028002C002C000000E600E700A0
:10013000E400005C01000100010001000100010079
:1001400001000100010001000100010001000100A7
:100150000100010001000100010001000000010098
:100160000100010001000100010001000100010087
:100170000100010000000100010001000100010078
:100180000100000001000100010001000100010068
:100190000100010001000100010001000100010057
:1001A0000100010001000100010000000100010048
:1001B0000100000001000100010001000100010038
:1001C0000100010001000100010001000100010027
:1001D0000100010001000100010001000100010017
:1001E0000100010000000100010001000100010008
:1001F00001000100010001000100010000000100F8
:1002000001000100010001000100000001000100E7
:1002100001000100010001000100010001000100D6
:1002200001000100010001000100010001000100C6
:1002300001000000010001000100000001000100B8
:1002400001000100010001000100010001000100A6
:100250000100010001000100010001000100010096
:100260000100010001000100010001000000010087
:100270000100010001000100010001000100010076
:100280000100010000000100010001000100010067
:100290000100000001000100010001000100010057
:1002A0000100010001000100010001000100010046
:1002B0000100010001000100010000000100010037
:1002C0000100000001000100010001000000000029
:1002D000000000002A2B28000000000000000000A1
:1002E0000000000000000029000000002C1E342047
:1002F000212224342627252E362D3738271E1F206D
:100300002122232425263333362E37381F040506B1
:100310000708090A0B0C0D0E0F10111213141516F5
:100320001718191A1B1C1D2F3130232D35040506F3
:100330000708090A0B0C0D0E0F10111213141516D5
:100340001718191A1B1C1D2F3130354C00000000E6
:10035000000000000000000000000000000000009D
:100360007E0F00D4FFFFFFC7000000781E140A05AF
:100370002223252628292A2C2D2F303233353638B2
:100380003A3B3D3E4042434547494A4C4E5051530B
:100390005557595A5C5E6062646668696B6D6F712F
:1003A000737577797B7D7F81838587898A8C8E9031
:1003B000929496989A9C9E9FA1A3A5A7A8AAACAE3A
:1003C000AFB1B3B4B6B8B9BBBCBEBFC1C2C3C5C67A
:1003D000C7C9CACBCCCDCED0D1D2D2D3D4D5D6D723
:1003E000D7D8D9D9DADADBDBDBDCDCDCDCDCDDDD61
:1003F000DDDDDCDCDCDCDCDBDBDBDADAD9D9D8D751
:10040000D7D6D5D4D3D2D2D1D0CECDCCCBCAC9C7F2
:10041000C6C5C3C2C1BFBEBCBBB9B8B6B4B3B1AF29
:10042000AEACAAA8A7A5A3A19F9E9C9A98969492C9
:10043000908E8C8A89878583817F7D7B79777573A0
:10044000716F6D6B6968666462605E5C5A5957557E
:100450005351504E4C4A4947454342403E3D3B3A3A
:100460003836353332302F2D2C2A292826252322C1
:100470000001010101010101010102020202020267
:10048000020202030303030303030304040404043A
:100490000404050505050506060606060707070701
:1004A0000708080808090909090A0A0A0B0B0B0CB6
:1004B0000C0C0D0D0D0E0E0E0F0F0F101011111153
:1004C00012121313141415151616171718181919D4
:1004D0001A1A1B1B1C1D1D1E1E1F20202122222339
:1004E0002424252626272829292A2B2C2D2D2E2F7A
:1004F00030313232333435363738393A3B3C3D3E91
:100500003F404142434445464748494A4C4D4E4F7F
:1005100050515354555658595A5B5D5E5F61626441
:10052000656668696B6C6D6F7072737577787A7BCE
:100530007D7E8082838587888A8C8E8F9193959625
:10054000989A9C9EA0A2A3A5A7A9ABADAFB1B3B545
:10055000B7BABCBEC0C2C4C6C9CBCDCFD1D4D6D821
:10056000DBDDDFE2E4E7E9EBEEF0F3F5F8FAFDFFBF
:10057000160343006C0061007200610062006500B8
:100580006C006C006500000018034B0069006E00F1
:1005900067006C0079002D004B0065007900730046
:1005A00000000403090409025B00030100A0FA092A
:1005B0000400000103010100092111010001224092
:1005C000000705810308000A090401000203000076
:1005D00000092111010001222200070582032000E9
:1005E00001070503032000010904020001030000C4
:1005F0000009211101000122810007058403200068
:100600000A12011001000000084B4B2512110001D5
:100610000200010660FF0961A1010962150026FFC1
:10062000009520750881020963150026FF009520BA
:1006300075089102C005010902A10185020901A105
:100640000005091901290515002501950575018188
:1006500002950175038101050109300931158125D4
:100660007F95027508810609381581257F950175EA
:10067000088106050C0A38021581257F9501750849
:100680008106C0C005010980A101850319012AB7AF
:1006900000150126B700950175108100C0050C09F1
:1006A00001A101850419012AA002150126A00295C5
:1006B0000175108100C005010906A101050719E0B7
:1006C00029E7150025019508750181029501750836
:1006D00081010507190029FF150026FF0095067501
:1006E00008810005081901290595057501910295F4
:1006F0000175039101C011241FBECFEFDAE0DEBF08
:10070000CDBF04B603FE27C08091A1029091A20242
:10071000A091A302B091A4028730904BA740B04BA8
:10072000D1F41092A1021092A2021092A302109290
:10073000A40214BE84B7877F84BF0FB6F894A8952F
:1007400080916000886180936000109260000FBE0D
:10075000E0E0F8E3099511E0A0E0B1E0E6E8F7E5B4
:1007600002C005900D92A83AB107D9F722E0A8EA95
:10077000B1E001C01D92A13AB207E1F70E9428251D
:100780000C94722B0C94000061E080E00E94AB0995
:1007900044E66FEF82E30E946E0B82E00E94180C29
:1007A0002BE832E040E069EB81EE0E94CC090C942A
:1007B000660ACF92DF92EF92FF92CF936B017C019A
:1007C00041E00E945E1CC82F43E0C701B6010E94B1
:1007D0005E1C4C2F4195682F61952BE832E08FEF1E
:1007E0000E94CC090E94660AC701B601CF91FF9012
:1007F000EF90DF90CF90089581E0089581E0089513
:100800000C94FE0308950C9402041F93CF93DF937E
:1008100000D000D00F92CDB7DEB749835A836B83E7
:100820003091CF0189819A8131111DC06623B9F0C1
:100830002223A9F00E94781D182F682F89819A81A0
:100840000E94241D69817A81812F0F900F900F9053
:100850000F900F90DF91CF911F910C94B40F0E94D5
:10086000501D182FEFCF0E94781D69817A81EDCF3E
:10087000FC01262F408151816281738184810C9417
:100880000504CF93DF93EC0160E00E943804BE01C1
:10089000DF91CF910C940304FF920F931F93CF939A
:1008A000DF93E82FF0E0E453FD4FF490C82FC69596
:1008B000C695C695D0E0FE01E45AFC4F04918770BE
:1008C00010E0082E02C0159507950A94E2F7017012
:1008D0001127C45BDC4FFE01C491D0E002C0D59566
:1008E000C7958A95E2F7C170DD270115110519F04A
:1008F00081EE0E943614209719F086EE0E9436147D
:100900008F2D0E941E15CD2B19F086EE0E94C81463
:10091000012B41F081EEDF91CF911F910F91FF905C
:100920000C94C814DF91CF911F910F91FF900895FF
:10093000EF92FF920F931F93CF93DF93EC01162F4B
:100940000AE08881882309F454C0813009F04EC040
:100950008981813099F47E0122E0E20EF11C8A81C6
:100960000E941E15E7012196812F815050F3EFE977
:10097000FFE03197F1F700C00000F7CF823041F47B
:100980007E0182E0E80EF11C8A810E943614EACFD3
:10099000833041F47E01E2E0EE0EF11C8A810E9478
:1009A000C814E0CF843011F02196DDCF2A81229641
:1009B00090E080E0AE014F5F5F4F2053330B2A3051
:1009C000310548F0019778F2EFE9FFE03197F1F750
:1009D00000C00000F7CF089FB001099F700D1124DF
:1009E000C901860F971F2981EA01E4CF0E944C04B8
:1009F000BACFDF91CF911F910F91FF90EF900895A3
:100A000060E00C9498048F929F92AF92BF92CF9225
:100A1000DF92EF92FF920F931F936B017C0181E0B5
:100A200090E0A0E0B0E04C015D0104C0880C991C8E
:100A3000AA1CBB1C4A95D2F7B501A4014C015D016B
:100A400004C0880C991CAA1CBB1C2A95D2F7482903
:100A500059296A297B2904C0880F991FAA1FBB1F27
:100A60000A95D2F78A019B010C211D212E213F21DD
:100A7000041715072607370789F48C299D29AE2905
:100A8000BF29BC01CD011F910F91FF90EF90DF9026
:100A9000CF90BF90AF909F908F9008958095909544
:100AA000A095B0958C219D21AE21BF21EACF0F9357
:100AB000382F262F609135027091360280913702CF
:100AC00090913802042F432F0E9403050F910C943C
:100AD0004D1C0E94B8200E94C21E811102C00E94BB
:100AE000661F0C94D8070C94DB0708950E94AD177D
:100AF0000E9475052FEF84E39CE0215080409040D8
:100B0000E1F700C000000C9492200F931F93CF9345
:100B1000DF93EC0161E00E9438048C01BE010E9469
:100B20009A0D882389F1BE01C8010E940004882320
:100B300059F1BE01C8010E940A11882329F1BE01A2
:100B4000C8010E945C118823F9F0BE01C8010E940F
:100B50007F128823C9F0BE01C8010E94BC0C882303
:100B600099F08A81882339F001158CE5180751F036
:100B70000F3D1C4579F0CE01DF91CF911F910F9170
:100B80000C94FC030E94760580E0DF91CF911F91C9
:100B90000F9108950E94661FF7CF08950C94CD051C
:100BA00081E008950C94D005CF93C82F0E94CE0504
:100BB0008C2FCF910C94D20590E080E00895089599
:100BC000FC01EE0FFF1FE459FC4F859194910895AD
:100BD000CF93DF930E94B40F0E94FD06EC018115B4
:100BE00020E5920708F042C0811530E4930708F031
:100BF000BDC0883E910528F5803E910508F09DC056
:100C0000883A910588F4853A910508F08FC08130C3
:100C1000910509F492C0009709F48FC0049708F079
:100C20008CC0D0E0C0E089C08F3B910508F489C03A
:100C3000805C9109C03CD105A0F30E94E005EC0165
:100C40007CC08115904250F4C11581E0D80708F0AE
:100C500074C0C03FD10528F3D0656FC0C11590E3C3
:100C6000D90708F079C0CE019F70E7CF811525E53F
:100C7000920758F5811534E5930708F0A6C0811551
:100C800042E5940750F4C11581E5D80708F471C016
:100C9000DC2FCC27C16FD06A50C0982F96959695BF
:100CA0009E0123703327C115D34508F07FC0C1E0F2
:100CB000D0E002C0CC0FDD1F2A95E2F720E2929F20
:100CC000C0011124C82BD92B6FC0C11589E5D807E5
:100CD000A8F4C11598E5D90708F07CC0C11526E530
:100CE000D20708F09ECF8C2F0E949407C82FD0E027
:100CF000DC2FCC27CC27DF71D0621FC0C1153AE5AD
:100D0000D30708F46CC0CE0190568115904208F0CC
:100D100088CF8D2F8F710E94940790E0982F88279D
:100D200088279F719C012C2BE901E6CFC55AD0E0A2
:100D3000C75BDE4FC881D0E0D064CE01DF91CF9198
:100D40000895C85AD0E0CC0FDD1FC55EDE4F099074
:100D5000D881C02DD464F1CFCE019927D3FF03C031
:100D6000EC01D86CEACFEC01D06CE7CFDF70D06A31
:100D7000E4CFCE01E4E096958795EA95E1F783709C
:100D80002C2F26952695237090E2299F90011124FF
:100D9000382B8C2F8370C1E0D0E002C0CC0FDD1F58
:100DA0008A95E2F7C22BD32BDC68C7CFC1E0D0E035
:100DB00002C0CC0FDD1F2A95E2F730E2939FC001FD
:100DC0001124C82BD92BDA68B8CFD82FCC27C46F01
:100DD000D06AB3CFDC2FCC27C06FD06AAECF8C2FB8
:100DE0008F700E94940734E0D695C7953A95E1F745
:100DF000CF709C2FEC01D069A0CF82389105B1F162
:100E0000B0F48133910509F475C048F48932910535
:100E100009F469C08A32910509F473C008958533D5
:100E2000910509F459C08933910501F10895833E74
:100E30009105A9F138F4803E9105F9F0823E9105C3
:100E400049F10895863E9105A9F1873E9105C9F1C2
:100E5000843E910519F52091930221FF1FC08091D6
:100E6000920284FD14C087EE90E0089520919202D2
:100E70002370A1F080EE90E008952091920220FD71
:100E800047C03091930230FF09C024FF44C090E076
:100E900080E004C02091920222FDF7CF08952091B6
:100EA000920222FD3BC03091930230FDE3CF24FF3C
:100EB000F5CFEDCF2091920223FFF0CF24FDE7CFB5
:100EC000D2CF2091920223FD2CC03091930231FFAA
:100ED000EECF84EE90E008952091920225FFDECFC0
:100EE00089E290E008952091920225FFD7CF85E313
:100EF00090E008952091920226FFD0CF8AE290E000
:100F000008952091920226FFC9CF81E390E00895D1
:100F100089E390E0089583EE90E0089582EE90E0FA
:100F2000089586EE90E008959091920292FF06C097
:100F3000282F28712830F9F4877F846093FF06C03A
:100F4000282F28712831F1F4877E84612091930243
:100F500020FF06C0382F38713830D9F4877F816080
:100F600021FF06C0282F28712831D1F4877E8161A6
:100F700094FD877E0895282F24712430F9F68B7F05
:100F80008860DCCF282F2471243101F78B7E8861A3
:100F9000DDCF382F3171313019F78E7F8860E0CF87
:100FA000282F2171213121F78E7E8861E1CF0895AC
:100FB0000C94D70708950C94DA0794E0899FF00108
:100FC0001124ED58FD4F60817181828193810895D4
:100FD000089580EA8A95F1F70895F894E82FE2954C
:100FE000EF70F0E031A1282F2F7081E090E001C078
:100FF000880F2A95EAF7982F9095932391A392A1B1
:10100000892B82A3789408950F931F93CF93DF9336
:1010100080EF0E94ED0781EF0E94ED0787E60E94B6
:10102000ED0784EF0E94ED07CCE4D1E00DE511E07F
:1010300089910E94ED070C171D07D1F7E3E6F2E056
:10104000A3E7B2E083E792E011921192119211921C
:101050001D921D921D921D928E179F07A9F784E085
:101060000E94D608DF91CF911F910F910C946905D2
:101070004F925F926F927F928F929F92AF92BF92A8
:10108000CF92DF92EF92FF920F931F93CF930DE5D4
:1010900011E033E6E32E32E0F32EC0E0CC24C3941B
:1010A000D12CF80181918F01F894E82FE295EF702F
:1010B000F0E021A18F70260102C0440C551C8A95D6
:1010C000E2F7C201922F982B91A392A180958923D8
:1010D00082A378940E94E907ACE4B1E090E080E05C
:1010E000812C912C54014D91E42FE295EF70F0E0AA
:1010F00020A130E04F7002C0359527954A95E2F760
:1011000020FD4EC0412C512C32014394082E04C0C6
:10111000440C551C661C771C0A94D2F7B301A2013B
:10112000842A952AA62AB72A019681319105D9F6F3
:10113000F801319780810E94ED07F701808191814C
:10114000A281B38188169906AA06BB0669F180823E
:101150009182A282B38281E0C82BF4E0EF0EF11CF1
:1011600041E00136140709F09CCF2C2F44E063E7DF
:1011700072E083E692E00E94D7080E9473058C2FEC
:10118000CF911F910F91FF90EF90DF90CF90BF9084
:10119000AF909F908F907F906F905F904F90089549
:1011A00040E050E0BA01BCCF80E0D6CF0895FF9276
:1011B0000F931F93CF93DF93F82ED92F8B01C42F5A
:1011C000222349F081E08093AA010E944720909356
:1011D000A9018093A8018091AA01882399F08091A8
:1011E000A8019091A9010E945F20069758F0EF2D69
:1011F000FD2FD80190E080E0D0E08C179D0744F0EF
:101200001092AA01DF91CF911F910F91FF90089545
:1012100001911191219131910D931D932D933D9346
:101220000196EBCFEF92FF920F931F93CF93DF9333
:10123000EB01E82FD11110C0442321F0F0E0E05978
:10124000FB4FE4916E2F7E2F8E2FDF91CF911F9158
:101250000F91FF90EF9008950D2F10E0282F30E0B0
:10126000442329F020593B4FF901249130E0F6E066
:10127000CF9FC0011124EFEFF0E0BF010E94E82AE8
:10128000AB018C2F90E0880F991FA5E5A49FB001BA
:10129000A59F700D1124861B970B982F990F980FFF
:1012A000BF01601B710B629FD001639FB00D729FE5
:1012B000B00D11248B2F9D9FB0011124672F77272C
:1012C000EF01C61BD70BBE01629FE001639FD00DEB
:1012D000729FD00D11247F01E91AF108E09EB00140
:1012E000E19E700DF09E700D1124672F7727E61B8D
:1012F000F70BE29F8001E39F100DF29F100D112468
:10130000E12F722F4230510599F048F441155105F3
:1013100069F04130510581F0EB2F8D2F07C044302B
:10132000510569F080F046305105B1F76E2F8DCF31
:10133000E22F7B2F812FFACFE22F7D2FF7CFEB2FDC
:10134000822F712FF3CF7B2F822FED2FEFCF41E034
:101350000C9412090895823070F4482F460F5527D7
:10136000551F433051053CF480930201860F809352
:1013700003016093040108950C94A709CF93DF93B0
:10138000762FE901682F842F0E94BC097983688336
:101390008A83DF91CF910895F9018183608342832D
:1013A000089580918302982F9E7F29F48170826036
:1013B0008093830208958C30E8F381708A60F8CFBF
:1013C00088E090E00C94322BCF92DF92EF92FF9264
:1013D0006B017C010E94D109B701A60188E090E071
:1013E000FF90EF90DF90CF900C94502B6091830290
:1013F0007091840280918502909186020C94E40998
:10140000E3E8F2E083E0808311828FEF82838383BD
:10141000148260817181828193810C94E4098091AE
:10142000830280FF02C08695089580E00895909120
:101430008702933018F49F5F90938702882351F0BE
:10144000609183027091840280918502909186025E
:101450000C94E409089581E00C94170A9091870296
:10146000992319F0915090938702882351F060914D
:1014700083027091840280918502909186020C947F
:10148000E409089581E00C942E0A80918702089562
:1014900080938702662351F06091830270918402E9
:1014A00080918502909186020C94E409089560E091
:1014B0000C94480A809184020895809185020895D1
:1014C00080918602089570E00C94170D60910101DF
:1014D0008091830280FF0AC08091000123E0829FF7
:1014E000C001112488579D4F0C94630A809102011A
:1014F0009091030123E0829FF0011124E857FD4FF2
:10150000891750F71182108212828F5F3396F8CFBD
:101510009091830290FF14C09091020120910301E9
:1015200033E0939FF0011124E857FD4F921710F01C
:101530000C94660A8183608342839F5F3396F6CF63
:101540000895CF93DF9300D00F92CDB7DEB790917F
:10155000830290FF0AC09E012F5F3F4F0E94BE0989
:101560004B8169818A810E94880A0F900F900F90A9
:10157000DF91CF910895CF93DF93EC01EC81F0E000
:10158000E059FC4F4491E3E8F2E0628181810E94DE
:10159000A10A8C818F5F8C83DF91CF910895EF92A8
:1015A000FF920F931F93CF93DF9300D00F92CDB78D
:1015B000DEB7F82E062F142FE22E8091830280FFD3
:1015C00028C0E82FE695F0E0EF59FE4F9081909308
:1015D000B2018E7F823039F59E012F5F3F4F8F2DF4
:1015E0000E94BE094B8169818A810E94880AF0921B
:1015F00084020093850210938602EE2051F06091E0
:1016000083027091840280918502909186020E94EB
:10161000E4090F900F900F90DF91CF911F910F91E0
:10162000FF90EF900895923011F710918602DFCF6E
:10163000E3E8F2E09181282F4381628188E0890FFD
:101640000C94CF0A81E00C94180BE3E8F2E091814E
:10165000282F4381628188EF890F0C94CF0A81E0A3
:101660000C94250BE3E8F2E0628121E1620F08F4BB
:101670006FEF282F438181810C94CF0A81E00C9475
:10168000320BE3E8F2E0628121E1621B08F460E0E2
:10169000282F438181810C94CF0A81E00C94410B67
:1016A000E3E8F2E0438121E1420F08F44FEF282FF5
:1016B000628181810C94CF0A81E00C94500BE3E8A5
:1016C000F2E0438121E1421B08F440E0282F6281CF
:1016D00081810C94CF0A81E00C945F0B20E00C9484
:1016E000CF0AE3E8F2E080818E7F808360817181A0
:1016F000828193810E94E4091092B3012FEF80E769
:1017000092E0215080409040E1F700C000000C942E
:10171000660AE3E8F2E080818E7F80831092B30155
:101720002FEF80E792E0215080409040E1F700C029
:1017300000000C94660A60918302669570E041E0B7
:1017400050E085E091E00E941D2B892B19F481E087
:101750008093B3010E9447209093AC018093AB012A
:1017600008959091830290FF35C09170811128C037
:10177000926090938302662351F06091830270918E
:10178000840280918502909186020E94E409609112
:101790008302669570E041E050E085E091E00E94B0
:1017A0001D2B892BA1F01092B30181E08093AE0133
:1017B0004091860260918502809184020C946E0BA8
:1017C000863010F09A60D5CF880F982BD2CF0E9428
:1017D0009B0BEBCF0895682F90918302969581E043
:1017E000890F863008F081E00C94B10B81E00C94F5
:1017F000EB0B682F9091830296958FEF890F09F478
:1018000085E00C94B10B81E00C94F90B61E00C9431
:10181000B10BE3E8F2E080818160808386950C94CF
:10182000060C8091830280FD0C94710B0C94090CC2
:1018300060E00C94B10B8091B10181112EC00E9427
:10184000C21E811104C00E94661F0E94000A0E94ED
:10185000E0096093830270938402809385029093E1
:1018600086026E7F61F40E94000A0E94E009609384
:1018700083027093840280938502909386020E9473
:10188000D1091092B3018091830280FF03C0869535
:101890000E94180C81E08093B1010895E3E8F2E022
:1018A00080818160808386950C94180C0F931F9320
:1018B000CF93DF938091B301882309F446C08091D0
:1018C000B201E0918302E695E81BE093AD01C0ED23
:1018D000D7E00AEA19E0823041F4F0E0E459FC4F25
:1018E000E491CE2FD0E00BEB1AE08091AE0188237B
:1018F00089F01092AE010E9447209E0120953095FC
:10190000820F931F9093AC018093AB011092B001B2
:101910001092AF018091AB019091AC010E945F20C9
:101920008C179D0790F0E091AB01F091AC01CE0FC8
:10193000DF1FD093AC01C093AB018BEA91E0F801BB
:10194000DF91CF911F910F910994DF91CF911F915A
:101950000F910895FA01811101C0FB0109940E94C1
:101960000F0A823030F00E940F0A853010F40C9478
:10197000F60B82E00C94060C0F931F93CF938C010F
:10198000FB01C281CC2309F450C00E940D1E82725B
:10199000F801E35CFC45E431F10538F4EC58F44D12
:1019A0000C94102B0E94110CC0E08C2FCF911F9132
:1019B0000F91089543E05CE066EF7BE00E94AA0C83
:1019C000F3CF46EF5BE063E07CE0F8CF4FE25BE013
:1019D00062E27BE0F3CF42E25BE06FE27BE0EECFDE
:1019E0004DE45BE06EE37BE0E9CF4EE35BE06DE46A
:1019F0007BE0E4CF4BE65BE06CE57BE0DFCF4CE5E2
:101A00005BE06BE67BE0DACF42E45AE06BE27AE03F
:101A1000D5CF4BE25AE062E47AE0D0CF81E00E9479
:101A2000060CC2CF0E94AF0CBFCFC1E0BECF6E9AF2
:101A30004EB14F7B5EB15064EFB7F8949B01220F1B
:101A4000331F260F371F280F391F2817390741F476
:101A5000EFBF8FE594E00197F1F700C00000089513
:101A6000DC016D91CD0178E05EB9000000C067FF38
:101A70004EB9660F000000C000C000C04EB900C0E3
:101A80007A9591F7E2CF82E290E00E942A2B813290
:101A900089F483E290E00E942A2B823059F484E298
:101AA00090E00E942A2B91E0893109F090E0892F83
:101AB0008170089580E0FCCFCF93C82F6FEF811124
:101AC00061E282E290E00E943E2B6FEFC11162E082
:101AD00083E290E00E943E2B6FEFC11169E184E246
:101AE00090E0CF910C943E2B80E00E945C0D0C9412
:101AF000BC1E089585E290E00E942A2B682F70E0BA
:101B000090E080E0089585E290E00C943E2B0E94E6
:101B1000790D0E94430D81110CC060E070E0CB0193
:101B20000E94830D0E942C0F0E94181081E00C94DB
:101B30005C0D0895CF93FB01C281CC2309F19C0178
:101B400022513F452031310520F582510E94281055
:101B5000C0E08C2FCF91089581E00E94881C43E063
:101B600062E081E00E945705F3CF81E00E94A91C4A
:101B700043E062E081E00E945705EBCF82E0F6CFC0
:101B80008031FFE59F0789F381319F45B9F3C1E0BB
:101B9000E0CF8031EFE59E07F9F281319F45C9F62C
:101BA00082E0DBCF2FEFFC0120830895CF93DF93FA
:101BB000EC0188818138A9F028F4803871F0DF9138
:101BC000CF910895823881F08338C9F70E945A0A6C
:101BD00089830E945D0A8A83F2CF0E94600A89830A
:101BE000EECF0E940F0AFBCF0E94450AF8CFCF9399
:101BF000DF93EC0188818138E1F028F4803869F0C6
:101C0000DF91CF910895823811F18338C9F70E948E
:101C1000600A482F6A81898108C0D9810E945D0AC3
:101C2000C82F0E945A0A4D2F6C2FDF91CF910C9430
:101C30006E0B89810E94180C8981811104C0DF918B
:101C4000CF910C94890BDF91CF910C944E0C89812C
:101C5000DF91CF910C94570AEF92FF920F931F934D
:101C6000CF93DF93EC01E62EDC01ED91CD01E15045
:101C7000E33108F0AEC0F0E0E857F44D0C94102BBF
:101C8000198289E08A836E2DCE01DF91CF911F9159
:101C90000F91FF90EF900C941C248981823069F0A1
:101CA000833071F08130E1F40E9453200E94162BA2
:101CB0006A837B838C839D83E6CF0E947A0DF6CF67
:101CC0008E01F12C8F2D0E94DD07F8018283738332
:101CD0006483F3940D5F1F4FF4E0FF12F3CFD3CF73
:101CE0006E2DCE010E94D20DCECF89818230C1F7F8
:101CF0006A817B818C819D810E94162B0E94830DBD
:101D0000C2CF4B816A8189810E94FE0E9827892764
:101D100098279D838C83B7CF2C813D813227232741
:101D200032274B816A8189810E94170FACCF0E94B4
:101D30002C0FA9CF0E94F70DA6CF0E94D60DA3CFDE
:101D40000E94F609A0CF0E94C10F89839CCF0E94F8
:101D5000C30F9827892798279A83898394CF6B810B
:101D600070E089819A81AE014C5F5F4F9827892787
:101D700098270E94C60F87CF6B8170E089819A8176
:101D8000AE014C5F5F4F9827892798270E94ED0F7F
:101D90007ACF0E94181077CF0E94EC0ED6CF6B81BD
:101DA00070E089819A81AE014C5F5F4F9827892747
:101DB00098270E94640F67CF6B8170E089819A81B8
:101DC000AE014C5F5F4F9827892798270E948A0FA2
:101DD0005ACF8FEF888357CF84E0089550E0440FA7
:101DE000551F92E2699F400D511D112498E8899F6B
:101DF000400D511D1124CA01869608950F931F931B
:101E0000CF93DF930E94EE0E8C010E942A2BC82FE5
:101E1000D0E0DC2FCC27C80101960E942A2B9E011E
:101E2000282BC901DF91CF911F910F9108950F9336
:101E30001F93CF93DF93122F032F0E94EE0EEC011E
:101E4000602F0E943E2B612FCE010196DF91CF9132
:101E50001F910F910C943E2BAF92BF92CF92DF92C5
:101E6000EF92FF921F93CF93DF938CEAC82E80E00E
:101E7000D82ED0E07601C0E014C0F5012591349150
:101E8000412F6C2F8D2F0E94170F82E0A80EB11CDE
:101E90001F5F113191F782E2E80EF11CCF5FC43071
:101EA00019F0570110E0E9CFDF5F88E8C80ED11CB8
:101EB000D43001F7DF91CF911F91FF90EF90DF9029
:101EC000CF90BF90AF900895EF92FF920F931F9322
:101ED000CF93DF93EC018A017C01E60EF71ECE0161
:101EE0008696CE15DF0539F4DF91CF911F910F91C2
:101EF000FF90EF900895C03222E0D20740F40E9494
:101F00002A2BF80180830F5F1F4F2196E8CFF8013D
:101F10001082F9CFCF92DF92EF92FF920F931F932F
:101F2000CF93DF937C016A018C01060F171FEC0130
:101F3000CE018696C017D10749F4DF91CF911F914A
:101F40000F91FF90EF90DF90CF900895C03222E084
:101F5000D20740F4FE01EE19FF09EC0DFD1D608172
:101F60000E943E2B2196E4CF462F843038F4743003
:101F700028F4613118F4672F0C94FE0E90E080E095
:101F8000089580E108958AEB91E00895EF92FF9221
:101F90000F931F93CF93DF93EC018A017C01E60E30
:101FA000F71ECE018A5B9D4FCE15DF0539F4DF9118
:101FB000CF911F910F91FF90EF900895CA3B21E0C0
:101FC000D20740F40E942A2BF80180830F5F1F4F35
:101FD0002196E7CFF8011082F9CFCF92DF92EF92EE
:101FE000FF920F931F93CF93DF937C016A018C01C3
:101FF000060F171FEC01CE018A5B9D4FC017D1075A
:1020000049F4DF91CF911F910F91FF90EF90DF90F6
:10201000CF900895CA3B21E0D20740F4FE01EE19AB
:10202000FF09EC0DFD1D60810E943E2B2196E3CF40
:10203000CF93DF93C6E4D2E060E0CE010E943E2B56
:102040002196C11584E0D807B9F7DF91CF910895A3
:10205000DF92EF92FF920F931F93CF93DF9300D005
:1020600000D0CDB7DEB7F82E8FE08F1540F08FEFA0
:1020700093E00E942A2B06E412E08823C1F00F901F
:102080000F900F900F90DF91CF911F910F91FF90C4
:10209000EF90DF900895011584E0180781F3C801DF
:1020A0000E942A2B811101C0FA940F5F1F4FF1107B
:1020B000F2CF19821A821B821C82DD24D39478010C
:1020C0008FEFE81AF80AC8010E942A2B89831A8226
:1020D0008823A9F29FEF980F933078F48A83D982EE
:1020E0000E5F1F4FC7010E942A2B8B83882339F272
:1020F000CE0101960E940005E2CF8701F9CFAF9291
:10210000BF92CF92DF92EF92FF920F931F93CF93E4
:10211000DF937C015B01C42FD22FFC0182818823D5
:10212000F9F04093B6010E9447209093B501809347
:10213000B40180E28C0F883008F061C0C77081E084
:1021400001C0880FCA95EAF7DF91CF911F910F91D7
:10215000FF90EF90DF90CF90BF90AF900C9431152F
:102160001091B601141340C08091B4019091B50153
:102170000E945F206C01B701C5010E944218C81679
:10218000D90690F5C0E2CD0F1D17B9F080E2810F9E
:10219000883040F4177081E001C0880F1A95EAF783
:1021A0000E943815C83048F481E09D2F977001C017
:1021B000880F9A95EAF70E943115802F0E941E150C
:1021C000C830E8F4D77081E001C0880FDA95EAF7EB
:1021D000DF91CF911F910F91FF90EF90DF90CF9003
:1021E000BF90AF900C94381580E28C0F883038F493
:1021F000C77081E001C0880FCA95EAF7E9CFDF9187
:10220000CF911F910F91FF90EF90DF90CF90BF90F3
:10221000AF9008950F939C01CB01243F4CE5340708
:1022200059F1A8F4293DFCE53F0701F12A3D4CE5B1
:102230003407D1F1283D3C4591F406E221EE41EE10
:1022400068ED7CE50E947F1080E00F910895263FA5
:10225000FCE53F07E9F0B0F0273F3C45F9F0FC0111
:102260008281882339F11092B601EFCF07E225EE83
:1022700045EE69ED7CE5E6CF06E221EE40EE64EF47
:102280007CE5E0CF07E225EE44EE65EF7CE5DACFB2
:1022900006E221EE42EE66EF7CE5D4CF07E225EEC2
:1022A00046EE67EF7CE5CECF08E221E045EE6AED31
:1022B0007CE5C8CF81E0C9CFCF93DF93EC01FB0170
:1022C0008281882309F419C1C230FCE5DF07C0F11F
:1022D000C6319CE5D90730F09E012B5F3C45293083
:1022E000310570F50E94D51E90939302809392025F
:1022F000C031ECE5DE0709F4CFC008F05BC0C830A0
:102300008CE5D80709F4B6C088F5C430ECE5DE07E3
:1023100009F4A8C0C0F4C2308CE5D80709F49CC009
:10232000809192028260C330DC4509F498C08091AC
:102330009202909193020E94E31E0E94AD1780E0EA
:10234000DF91CF910895809192028061C630ECE5D3
:10235000DE0709F484C0809192028860C730DC45B2
:1023600008F47DC080919202806279C0CC308CE507
:10237000D80709F489C070F4809192028C60CA3049
:10238000ECE5DE0709F46BC008F478C08091920296
:102390008E7F65C0CE308CE5D80709F479C0809176
:1023A00092028B7FCF30DC4508F459C080919202B5
:1023B0008F7E55C0CC3FECE5DE0709F457C030F501
:1023C000C3318CE5D80709F46FC078F4C131ECE56E
:1023D000DE0709F465C0C231DC4509F0A8CF0E94D0
:1023E000AD17809192028F773AC0C5318CE5D8073E
:1023F00009F462C008F476C0809193028160CB3FFB
:10240000DC4509F094CF8093930291CFC115FDE58F
:10241000DF0709F44DC088F4809193028D7FCE3F91
:102420009CE5D90781F3809193028E7FCF3FDC45F5
:1024300050F3809193028360E6CFC230FDE5DF0761
:1024400009F459C008F444C080E0C330DD4509F008
:102450006ECF0E94681F6BCF809192028160809343
:10246000920265CF809192028460F9CF80919302AD
:102470008260C9CF809192028064F1CF0E94AD1733
:10248000809192028068EBCF809192028D7FE7CF9E
:1024900080919202877FE3CF809192028F7DDFCF80
:1024A000809192028F7BDBCF80919202837FD7CF86
:1024B000809193028C7FA7CF8091920282FB992713
:1024C00090F921E0922790FB82F990FB83F9C7CF26
:1024D00080919302982F909591708E7F892B90FB1D
:1024E00081F991CF0E94AD1790919202892F97FBAD
:1024F00087F98058B4CF81E0ACCF81E021CFCF9372
:10250000DF93EB0186319C4511F50E940D1E9A81E7
:10251000992399F08A7A91E009F490E09093B701B9
:10252000811109C089E20E94E81D0E94591E80E0C5
:10253000DF91CF91089585E3F6CF8091B7018111A6
:1025400004C089E20E94EF1DF0CF85E3FBCF81E05C
:10255000EFCF9093BD018093BC010895E091BC0141
:10256000F091BD01309721F00190F081E02D0994A8
:1025700080E00895E091BC01F091BD01309721F019
:102580000280F381E02D09940895E091BC01F0915F
:10259000BD01309739F022E0DC012C930480F581F5
:1025A000E02D099408952091BA013091BB012817BC
:1025B000390771F09093BB018093BA01E091BC019F
:1025C000F091BD01309721F00680F781E02D09944C
:1025D00008952091B8013091B9012817390771F099
:1025E0009093B9018093B801E091BC01F091BD01D5
:1025F000309721F00084F185E02D0994089585B786
:10260000806885BF85B7806885BF0895089508955F
:102610000C9406130C94C4030E94FF120E9407132B
:102620000C94081381E008950C94121308950895F2
:102630000E943E200E9404080E94870D0E94CC2028
:102640000E941B0C0C940A132F923F924F925F92A0
:102650006F927F928F929F92AF92BF92CF92DF92B2
:10266000EF92FF920F931F93CF93DF93CDB7DEB717
:102670002B970FB6F894DEBF0FBECDBF0E94161386
:102680000E9417130E9438080E941413882309F42B
:1026900094C04FEB242E41E0342E10E000E00B8775
:1026A000802F0E94DD074B015C01F10141905190A8
:1026B000619071901F01481459046A047B0409F465
:1026C00076C080914A0281FD0E94E80780E0C12C1B
:1026D000D12C7601C394482459246A247B24B30165
:1026E000A2014C215D216E217F21452B462B472BDA
:1026F00009F455C08E83FB85FF838C209D20AE207E
:10270000BF2081E089288A288B2809F480E0888707
:102710000E9447208160782F9A8789874E815F8148
:1027200068858A850E940714000F111F000F111F72
:10273000F801E154FE4F80819181A281B3818C2503
:102740009D25AE25BF2580839183A283B3830E94FC
:10275000560C0E9477220E94AE129091BE018917FA
:10276000E9F10E94AE128093BE012B960FB6F89449
:10277000DEBF0FBECDBFDF91CF911F910F91FF90B4
:10278000EF90DF90CF90BF90AF909F908F907F9011
:102790006F905F904F903F902F900C94D4058F5F77
:1027A000CC0CDD1CEE1CFF1C813109F098CF0F5FB3
:1027B0001F4F0430110509F072CF8FEF89838A8390
:1027C0001B820E9447208160782F9D838C834981E2
:1027D0005A816B818D810E940714B9CF2B960FB659
:1027E000F894DEBF0FBECDBFDF91CF911F910F9147
:1027F000FF90EF90DF90CF90BF90AF909F908F9021
:102800007F906F905F904F903F902F900895CF935F
:10281000DF93CDB7DEB72B970FB6F894DEBF0FBEB0
:10282000CDBF4F83588769877A878B871E821D8229
:1028300085E0FE013796DE01119601900D928A9592
:10284000E1F749815A816B817C818D819E812B9634
:102850000FB6F894DEBF0FBECDBFDF91CF910C94C1
:10286000F11AFC01808191810C94BA1DCF93C82F7D
:10287000882309F48BC08238C1F40E94AE1281FD16
:1028800085C089E30E94E81D0E94591E2FEF81EE4A
:1028900094E0215080409040E1F700C0000089E3BF
:1028A0000E94EF1DCF910C94591E8338A1F40E9411
:1028B000AE1280FD6BC083E50E94E81D0E94591E88
:1028C0002FEF81EE94E0215080409040E1F700C06E
:1028D000000083E5E5CF8438A1F40E94AE1282FDAA
:1028E00055C087E40E94E81D0E94591E2FEF81EE1B
:1028F00094E0215080409040E1F700C0000087E460
:10290000CFCF8CEF8C0F813A90F46C2F8091060121
:10291000909107010E947F1F882329F08C2F0E942D
:10292000EF1D0E94591E8C2F0E94E81DBBCF80E234
:102930008C0F883048F4C77081E001C0880FCA95B9
:10294000EAF70E94101EAECFEBE5EC0FE33040F447
:10295000F0E0EB56FE4F808190E0CF910C94D312C3
:10296000E8E5EC0FE73150F4F0E0EE0FFF1FE95916
:10297000FE4F80819181CF910C94E912C03F30F0DD
:102980008C2F0E947121CF910C945C22CF910895DD
:10299000882309F452C0823871F40E94AE1281FF7C
:1029A0004CC089E30E94E81D0E94591E89E30E94E1
:1029B000EF1D0C94591E833859F40E94AE1280FF0B
:1029C0003CC083E50E94E81D0E94591E83E5EFCFBD
:1029D000843859F40E94AE1282FF2FC087E40E940F
:1029E000E81D0E94591E87E4E2CF9CEF980F913AB0
:1029F000F0F290E2980F983050F4877091E001C0A7
:102A0000990F8A95EAF7892F0E94161ED2CF9BE56F
:102A1000980F933020F490E080E00C94D31298E566
:102A2000980F973120F490E080E00C94E912803FF9
:102A300020F00E94D9210C945C220895CF93C82FD6
:102A40000E943614C93349F42FEF87EE93E02150EA
:102A500080409040E1F700C000008C2FCF910C9493
:102A6000C814882321F00E94101E0C94591E08954A
:102A7000882321F00E94161E0C94591E0895BF92BF
:102A8000CF92DF92EF92FF920F931F93CF93DF933A
:102A90006C01D62FC72FFC01058102950F701281A2
:102AA00011110E942D1E0E94061EE82E882391F00F
:102AB0001123D1F08C2F807F803421F080E28D0FA4
:102AC000883090F082E00E94A41E0E94061E91E0D1
:102AD000E82EE926BC2EB2949FE0B922EB2DF0E05F
:102AE000E556F44D0C94102BE12CF4CF0C2F0F7005
:102AF000C07F11F00295007F1123A9F0002359F047
:102B000080E28D0F883010F0D11109C0802F0E9413
:102B1000101E0E94591E8D2F0E94361414C0802F43
:102B20000E94201EF6CF8D2F0E94C814002359F05A
:102B300080E28D0F883010F0D1112CC0802F0E94C0
:102B4000161E0E94591E2B2D2850330B24303105A0
:102B500020F40E94AE120E94D405EE2009F49EC11A
:102B60000E94021E80FD9AC1F60112820E94FC1D85
:102B70000E94881CC6010E946F170E94FC1DDF91F5
:102B8000CF911F910F91FF90EF90DF90CF90BF906A
:102B90000C94A91C802F0E94261ED3CFFC2FFF70FF
:102BA000FF2EC07FC03219F0F29480EFF822DD23AF
:102BB00069F0D13049F1112391F1002351F1F6016F
:102BC000858180FFA8CF8F70858323C0112381F07A
:102BD000011106C00E94401E8F290E943115B3CFFB
:102BE0000130C1F70E94401E8F290E94461EABCFC4
:102BF000011106C00E944F1E8F2D0E943815A3CFD1
:102C0000013009F4A0CFF6CF112329F0063008F0E7
:102C10009ACF8F2DE2CF053008F095CFEDCF00236E
:102C200059F3D93349F4FFEF27EE33E0F150204058
:102C30003040E1F700C000008D2F0E94C81483CF00
:102C40008C2F86958695837069F0813009F07BCF53
:102C50008D2F9C2F9370111102C090E080E00E9494
:102C6000E91271CF8D2F9C2F9370111102C090E04B
:102C700080E00E94D31267CF8D2F112329F00E948C
:102C800071210E945C225FCF0E94D921FACF8C2F44
:102C9000837009F041C0111156CF4D2F42954695D2
:102CA0004770440F440F0D2F0F7010E030E020E00C
:102CB000042E04C0000F111F221F331F0A94D2F7E5
:102CC00060E070E0CB01D4FF0FC06FE070E080E007
:102CD00090E004C0660F771F881F991F4A95D2F7AE
:102CE0006095709580959095C695C695C370602B3C
:102CF000712B822B932BC23049F058F4C13019F05C
:102D00000E94271C20CF0E94151C1DCF0E94391C39
:102D10001ACF0E94131C17CF8695112311F08C2F08
:102D20008170882309F40FCF4D2F42954695477047
:102D3000440F440F0D2F0F7010E030E020E0042E00
:102D400004C0000F111F221F331F0A94D2F760E046
:102D500070E0CB01D4FF0FC06FE070E080E090E046
:102D600004C0660F771F881F991F4A95D2F7609598
:102D7000709580959095C695C695C370602B712B04
:102D8000822B932BC23049F058F4C13019F00E94C5
:102D9000FF1CD9CE0E94ED1CD6CE0E94111DD3CEB1
:102DA0000E944D1CD0CECF70112329F08C2F0E9491
:102DB000881C8D2F12CF8D2F0E9438158C2F0E94CA
:102DC000A91CC1CED23F89F160F4D03FC9F0D13FF8
:102DD00029F1112309F442C001119DCE8C2F8F716E
:102DE00021C0D33F39F1D43FA1F7112369F1CF714D
:102DF0008C2F0E94881C63E08C2F0E948F1EA3CE14
:102E0000112341F0053008F09ECE8C2F8F710E9467
:102E1000CC1C99CE063008F096CEF7CF8C2F8F7150
:102E2000112369F20E94881C8ECE8C2F8F71112382
:102E3000C9F3C5CF112329F08C2F8F710E94731C09
:102E400082CE0E94591C7FCE81E00E94A41E0230D7
:102E500008F479CE82E00E94A41E75CE002359F0BA
:102E6000D93309F0E9CE8FEF97EEE3E0815090403F
:102E7000E040E1F7DFCE8C2F8F71A1CF4C2F4F7048
:102E80006D2FC6010E94DC050E948B1B5CCE4C2F6F
:102E90004F706D2FC6010E94DF0555CEDF91CF9197
:102EA0001F910F91FF90EF90DF90CF90BF9008950A
:102EB0000F931F93CF93DF93EC01688179818A810F
:102EC0000E94C41D8C010E94231D0E94121CB80187
:102ED000CE01DF91CF911F910F910C943F15CF93AD
:102EE000DF93EC018B819C81892B29F0888199816A
:102EF00089238F3F59F4DF91CF910895CE010E942D
:102F00005817CE01DF91CF910C944104CE010E945D
:102F100085058111F3CF0E94061E882361F38A8103
:102F2000882349F382E0DF91CF910C94A41E0E9484
:102F30002D1E0E943D1E0E94591E0E9483230E9446
:102F40005C2290E080E00E94D31290E080E00C943C
:102F5000E9120E94F61D0C9497170E941D1E0C94F6
:102F6000A917E92FE295EF70E250EE3070F4F0E02F
:102F7000E555F44D0C94102B803F19F020F4883E59
:102F800020F481E00895843FE1F380E00895883ED5
:102F9000C0F3813FD1F7F5CF93FB882780F90895DF
:102FA0000E94BA1D0C94B117CF93DF9300D000D0CC
:102FB0000F92CDB7DEB70F900F900F900F900F903C
:102FC000DF91CF910895CF93DF9300D000D000D050
:102FD000CDB7DEB726960FB6F894DEBF0FBECDBFD5
:102FE000DF91CF9108951F93CF93DF93C091D001CC
:102FF00016E08091D1018C1304C0DF91CF911F9115
:103000000895D0E01C9FF0011D9FF00D1124EE5299
:10301000FE4F4081518162817381848195810E943C
:10302000E3172196C770E5CF409102025091030249
:10303000609104027091050280910602909107024E
:103040000C94E3172091D0019091D10156E02913FF
:1030500002C080E0089530E0529FF001539FF00DD0
:103060001124EE52FE4F7181761306C070817813E1
:1030700003C07281741304C02F5F3F4F2770E7CFE6
:1030800081E0089588EC90E00895DF92EF92FF923E
:103090000F931F93CF93DF9380910702807F61F49A
:1030A00080910402882341F0C091D00186E0D82E9F
:1030B0008091D1018C1308C0DF91CF911F910F91A6
:1030C000FF90EF90DF900895209105023091060265
:1030D000D0E02115310541F0809102029091030268
:1030E000482F49234F3F19F42196C770E1CFDC9E4A
:1030F0008001DD9E100D1124F801EE52FE4F51812A
:103100005913F2CF40814813EFCF82818111ECCF68
:10311000E380F480E21AF30A20E0609104027091E7
:103120000502809106020E94050462E072E00E949E
:103130004218E816F906C0F6809107028F70806188
:1031400080930702F801E952FE4F80818F70806101
:10315000808382E092E00E946F17DF91CF911F91F0
:103160000F91FF90EF90DF900C94F3176F927F9286
:103170008F929F92AF92BF92CF92DF92EF92FF9287
:103180000F931F93CF93DF93CDB7DEB761970FB641
:10319000F894DEBF0FBECDBF8C0185E0F801DE01E3
:1031A0001D9601900D928A95E1F7D8017C901196B9
:1031B000EC9011971296FC9082E0882E82E0982E77
:1031C0008091050290910602009749F04091020219
:1031D00050910302242F25232F3F09F09DC1F110A8
:1031E00009C1C8010E946F1775C0CD2829F08E2D26
:1031F00087218F3F09F017C180E0B82FB170CB2E27
:1032000080FF29C04F2D6E2D872D0E942218D82EA9
:10321000811121C07D86EE868D859E850E94BA1D16
:10322000292F22952F70223050F0243078F49F708F
:1032300051F0F8019581907F31F46D2C10C19F7091
:1032400011F08823D1F3805E8830B8F3C8010E9462
:103250006F17DC2CF2CFFF2009F401C18091070227
:10326000816080930702612CFAC0892B49F080911C
:10327000020290910302282F29232F3F09F005C154
:103280007D86EE868D859E850E94D017882309F461
:10329000A8CFFF2009F4A5CF80910702803270F0FB
:1032A000209102023091030238872F831986DB8632
:1032B000CA868C87CE0107960E946F1786E0F801B8
:1032C000A2E0B2E001900D928A95E1F70E944518C4
:1032D0000E94141866246394C2C0211113C07C2D6F
:1032E000D98AC88A472D5E2D6F2D89890E94D417EF
:1032F00082E092E00E946F1786E0F40111928A95B5
:10330000E9F76CC18091050290910602892B49F082
:103310008091020290910302282F29232F3F09F068
:10332000CDC07D86EE868D859E850E94D017882330
:1033300009F457CFFF2009F454CF8091070280325F
:1033400008F4BCCF20910202309103023A83298312
:103350001B82DD82CC828E83CE010196ADCF20E030
:1033600060E070910502809106020E94050462E00F
:1033700072E00E944218A816B90668F56F2CFF206B
:1033800009F42FCF8091050290910602892B49F014
:103390008091020290910302282F29232F3F09F0E8
:1033A000A3C07D86EE868D859E850E94D0178111F3
:1033B00085CF80910702816080930702C8010E9437
:1033C0006F174DC086E0F801A2E0B2E001900D92C7
:1033D0008A95E1F744C07C2DD98AC88A472D5E2D95
:1033E0006F2D89890E94D41786E0D4011D928A9599
:1033F000E9F761C07D86EE868D859E850E94D01797
:10340000682E882309F4EDCE86E0F801A2E0B2E050
:1034100001900D928A95E1F782E092E00E943114CA
:103420000E94451848C081E08F25E7CE81E08F25B6
:10343000C0C09E11A1C087119FC0F1109DC0809196
:1034400007028F708061809307020E94141882E047
:1034500092E00E946F1780910702F8018583862D04
:1034600061960FB6F894DEBF0FBECDBFDF91CF914E
:103470001F910F91FF90EF90DF90CF90BF90AF9092
:103480009F908F907F906F9008959E11F9CE871135
:10349000F7CEF110F5CE80910702D80115968C93E6
:1034A000C8010E946F1786E0F801A2E0B2E0019027
:1034B0000D928A95E1F70E941418D1CF9E1131CF59
:1034C00087112FCFF1102DCF80910702D8011596CB
:1034D0008C93C8010E946F17E2E0F2E086E0DF0102
:1034E0001D928A95E9F7BBCF9E115BCF871159CF0B
:1034F0009091070290FD66CF907F09F463CF809191
:103500000702F8018583903F59F2982F907F905FD2
:103510008F70892B8583C4CFF801C380D4806090DD
:1035200004025601A81AB90A662009F418CF20E04F
:10353000662D70910502809106020E94050462E0EA
:1035400072E00E94421820910702207FA816B90657
:1035500008F0C3CE8091050290910602211185CE1C
:103560006F2C892B49F08091020290910302282F41
:1035700029232F3F09F05DCF20E0409102025091B6
:1035800003026091040270910502809106020E947C
:103590000504B8010E944218843F914008F425CEEA
:1035A000C114D10429F08E2D87218F3F09F03ECF21
:1035B00080E080FF1ACE4F2D6E2D872D0E9422189D
:1035C000882309F412CE82E092E00E946F1786E011
:1035D000E2E0F2E0DF011D928A95E9F70E941418FB
:1035E00042CE1F93CF93DF93CDB7DEB72C970FB6A4
:1035F000F894DEBF0FBECDBF4F83588769877A87A7
:103600008B879C87CE0107960E94B618882369F0A5
:103610008A859B85892B39F04F815885842F852396
:103620008F3F09F071C016E05FC086E0FE0137965B
:10363000DE01119601900D928A95E1F78A859B85AE
:10364000892B89F388859F8189238F3F61F320919E
:10365000D10130E0C9010196877099274091D001CE
:103660004817190671F40E94AD171092D1011092FB
:10367000D00186E0E2E0F2E0DF011D928A95E9F7F1
:10368000D2CF96E0929FD001939FB00D1124AE52FD
:10369000BE4FFE01319601900D929A95E1F780930D
:1036A000D1010E94F317BFCF819FC00111248E5218
:1036B0009E4F0E94B6188823E9F0E091D0011E9F2A
:1036C000F0011124EE52FE4F4081518162817381DD
:1036D000848195810E94E3178091D00190E001964A
:1036E000877099278093D0018091D0019091D1016A
:1036F0008913DACF2C960FB6F894DEBF0FBECDBF7C
:10370000DF91CF911F91089569857A858B859C857E
:103710000E94E31788CFEF92FF920F931F93CF93EE
:10372000DF938C01892B81F0F12CEE24E394E801E6
:103730002196F8018491843770F4843008F05FC0DA
:103740008130B1F08230A1F1DF91CF911F910F91C3
:10375000FF90EF900895853709F44CC008F43DC000
:103760009CE7980F903780F78F770E94C81449C064
:103770000E5F1F4FFE01849190E2980F983060F425
:103780008770FE2D01C0FF0F8A95EAF78F2F0E94E8
:10379000301E0E94591E02C00E9436148F2D815087
:1037A00030F2EFE9FFE03197F1F700C00000F7CF0A
:1037B0000E5F1F4FFE01849190E2980F983050F4F5
:1037C0008770FE2D01C0FF0F8A95EAF78F2F0E94A8
:1037D000361EDFCF0E94C814E1CF0E5F1F4FFE01DF
:1037E000C491C150D8F28FE99FE00197F1F700C072
:1037F0000000F7CF0E5F1F4FFE01F490CFCF0E9465
:1038000036148E01CBCF08950C94031C0E94041C27
:103810006093390270933A0280933B0290933C028A
:103820000C94971708950C94061C0F931F93009106
:10383000390210913A0220913B0230913C02602BF8
:10384000712B822B932B1F910F910C94061C0F93BD
:103850001F930091390210913A0220913B0230915E
:103860003C0260237123822393231F910F910C94B8
:10387000061C0F931F930091390210913A02209178
:103880003B0230913C0260277127822793271F91CA
:103890000F910C94061C0C94D9030E944B1C60934E
:1038A00035027093360280933702909338020C945D
:1038B000971760E070E0CB010C944D1C6115710509
:1038C0008105910529F481E0442361F080E00895A9
:1038D000DC01CB0104C0B695A795979587954A95CD
:1038E000D2F7817008950F931F9341E050E060E09C
:1038F00070E08A019B0104C0000F111F221F331FBB
:103900008A95D2F7C901B8011F910F910C944D1CF3
:103910000F931F9341E050E060E070E004C0440F5B
:10392000551F661F771F8A95D2F7809135029091B7
:103930003602A0913702B09138028A019B01082B10
:10394000192B2A2B3B2BC901B8011F910F910C9405
:103950004D1C0F931F9341E050E060E070E004C005
:10396000440F551F661F771F8A95D2F7CB01BA0106
:103970006095709580959095009135021091360272
:1039800020913702309138026023712382239323E0
:103990001F910F910C944D1C0F931F9341E050E029
:1039A00060E070E004C0440F551F661F771F8A95C2
:1039B000D2F78091350290913602A0913702B091F2
:1039C00038028A019B01082719272A273B27C901AA
:1039D000B8011F910F910C944D1C0F931F930091F0
:1039E0003502109136022091370230913802602B57
:1039F000712B822B932B1F910F910C944D1C0F93C5
:103A00001F930091350210913602209137023091B8
:103A1000380260237123822393231F910F910C940A
:103A20004D1C0F931F930091350210913602209187
:103A300037023091380260277127822793271F9120
:103A40000F910C944D1C089521E1929F800D11243B
:103A5000982F977041E001C0440F9A95EAF7869538
:103A60008695869595E0899FF0011124E85FFD4FCA
:103A700090E080E070E05191DF0111979B01082EEA
:103A800002C0369527950A94E2F7217021952527E3
:103A9000242325272C9301968530910561F70895FD
:103AA00021E1929F800D1124982F9770869586951D
:103AB000869525E0829FF0011124E85FFD4F50E0DC
:103AC00040E080E0219130E0092E02C03695279534
:103AD0000A94E2F721703327042E01C0220F0A94C2
:103AE000EAF7822B4F5F5F4F4530510559F7089534
:103AF000BF92CF92DF92EF92FF920F931F93CF93DB
:103B0000DF938C01C0903502D0903602E0903702EE
:103B1000F09038028091390290913A02A0913B02D4
:103B2000B0913C02C82AD92AEA2AFB2ACFE1D0E088
:103B3000BC2ED701C6010C2E04C0B695A79597954B
:103B400087950A94D2F780FD0EC0219788F7B12C93
:103B50008B2DDF91CF911F910F91FF90EF90DF9010
:103B6000CF90BF900895B8018C2F0E94E80501976F
:103B700061F3EECFCF93DF93EC010E94781DBE017D
:103B8000DF91CF910C94E8051F93CF93DF93EB0166
:103B90009091CF01992331F0CB01DF91CF911F910B
:103BA0000C94BA1D882379F0CB010E94781D182F40
:103BB000682FCE010E94241DBE01812FDF91CF917D
:103BC0001F910C94E805CB010E94501D182FF4CFD3
:103BD000682F80910601909107010C94B51F682F02
:103BE00080910601909107010C94B71F8091060106
:103BF000909107010C94B91F80913D0285958595A0
:103C00008595089580913D028770089590913D02B9
:103C1000977081E009F480E0089580914902089549
:103C200090914902892B8093490208958095909143
:103C300049029823909349020895109249020895E9
:103C400090914802892B8093480208958095909125
:103C500048029823909348020895109248020895CC
:103C600090914702892B8093470208958095909107
:103C700047029823909347020895109247020895AF
:103C800080913E02089508950C94431E90913E0247
:103C9000981721F080933E020C94441E0895809161
:103CA0003E02882329F010923E0280E00C94441ECC
:103CB0000895E0910601F091070180914902808307
:103CC000E0910601F0910701808190914802892BD3
:103CD0008083E0910601F091070180819091470275
:103CE000892B808390913E02992381F0E091060117
:103CF000F09107018081892B80838091060190914A
:103D000007010E946D1F81110E944F1E80910601C4
:103D1000909107010C94BA1208950C948C1E98E0AF
:103D2000899F90011124622B60933D020E94881CA0
:103D300080913D028595859585950C948D1E1092F8
:103D40003D0280E00C948D1E90913D028095892368
:103D500080933D02282F277071F4282F082E000C25
:103D6000330B9217130639F08595859585950E943A
:103D7000A91C0C949F1E08956FEF7FEF90E080E0E8
:103D80000C945C2B90E080E00E94382B21E08C3E6C
:103D90009E4F09F020E0822F089582E090E00C947D
:103DA0002A2B83E090E00C942A2BCF9384E090E0C0
:103DB0000E942A2BC82F81E290E00E942A2B982F84
:103DC0008C2FCF910895CF93C92F682F84E090E076
:103DD0000E943E2B6C2F81E290E0CF910C943E2B01
:103DE000AB01BC018FE090E00C94502BAB01BC0107
:103DF00083E190E00C94502B60E070E0CB010C94D8
:103E0000F61E60E070E0CB010E94F01E0C94FC1ED8
:103E10006CEE7EEF90E080E00E945C2B60E082E040
:103E200090E00E943E2B60E083E090E00E943E2BF9
:103E30001092390210923A0210923B0210923C0208
:103E400060E084E090E00E943E2B60E081E290E040
:103E50000E943E2B60E085E090E00E943E2B60E0F7
:103E600086E090E00E943E2B6FEF87E090E00E949A
:103E70003E2B40E050E0BA0188E090E00E94502BD9
:103E800060E08DE090E00E943E2B40E050E0BA01FF
:103E900088E190E00E94502B60E087E190E00E9472
:103EA0003E2B40E050E0BA018CE190E00E94502BA4
:103EB00060E080E290E00E943E2B40E050E0BA01DA
:103EC00088E190E00E94502B0C94011F0C94081F75
:103ED000682F8EE090E00C943E2B9C012E5F3F4FAC
:103EE000AC01485F5F4F80E02417350709F408955F
:103EF000F90191919F019923B9F38F5FF5CF662363
:103F000049F0FC01329608962191261729F0E8170E
:103F1000F907D1F780E0089581E008959C01FC0144
:103F200032969FEF80E04191461751F09F3F19F480
:103F3000411101C0982F8F5F8630A9F79F3F09F488
:103F40000895290F311D97FD3A95F901628308956F
:103F5000FC01329608962191261303C0DF011197C8
:103F60001C92E817F907B9F708950C948E1F0C946A
:103F7000A81F029626E0FC0111922A95E9F7089500
:103F8000089508950C94C11F0E94C21F8091980249
:103F9000843049F110924B0288E190E020E40FB6A2
:103FA000F894A895809360000FBE2093600080E095
:103FB0000E94D4050E94C21F83B7817F846083BFA3
:103FC00083B7816083BF7894889583B78E7F83BFE2
:103FD0000FB6F894A8958091600088618093600086
:103FE000109260000FBE08950895CF930E94C01FE5
:103FF0000E9438080E94F41FC0E08C2F0E94DD0749
:10400000672B682B692B31F4CF5FC430B1F780E0A8
:10401000CF91089581E0FCCF08950C940C200E946C
:10402000AD170E94AE120E94D4050C940D201F9271
:104030001FB61F9211248F939F93AF93BF938091CC
:104040004B02811113C080918E0290918F02A0913A
:104050009002B09191024196A11DB11D80938E02F4
:1040600090938F02A0939002B0939102BF91AF9171
:104070009F918F911F901FBE1F90189582E084BD65
:1040800093E095BD9AEF97BD80936E0008952FB78A
:10409000F89480918E0290918F02A0919002B0913D
:1040A00091022FBF08952FB7F89460918E027091FE
:1040B0008F0280919002909191022FBF08959C01F0
:1040C0004FB7F89480918E0290918F02A091900248
:1040D000B09191024FBF821B930B089578941F9269
:1040E0001FB61F9211248F939F93AF93BF9380911C
:1040F0008E0290918F02A0919002B0919102019650
:10410000A11DB11D80938E0290938F02A093900207
:10411000B0939102BF91AF919F918F911F901FBE5D
:104120001F90189581E08093E00080E28093D80092
:104130001092C9008FE19EE40197F1F700C00000E2
:1041400087E090EBDC018093A1029093A202A09300
:10415000A302B093A40288E19CE00FB6F894A8955E
:10416000809360000FBE90936000FFCF0C94740D9D
:104170000E9438088FE39CE90197F1F700C0000026
:104180000E94380880E00E94DD0760FF04C00E94A2
:10419000B6200C94922008950E94C21E811102C084
:1041A0000E94661F0E94CD1E80934A020E94D51E67
:1041B00090939302809392020E94D11E682F70E028
:1041C00090E080E00E94131C6091350270913602ED
:1041D00080913702909138020C944B1C80915202CE
:1041E00080FF12C060910D0185E0689FB00111242D
:1041F000759567957595679560387105A8F5611592
:104200007105A1F1862F089581FF09C060910D010C
:1042100085E0689FB001112475956795EDCF609199
:104220000D0182FD0AC0809151028823D1F0909146
:104230000C0160910D01891728F085E0689FB0019D
:104240001124DACF869FB001112485E0869F90016A
:10425000879F300D1124692F70E0C9010E94FC2A4C
:10426000CBCF65E070E0CECF8FE7089581E0089571
:104270008091520280FF0CC06091090170E0759539
:104280006795759567956115710549F1862F0895B4
:1042900081FF06C06091090170E075956795F3CFC5
:1042A0006091090182FD0BC0909150029923A1F009
:1042B0006091080180910901961738F0682F70E02D
:1042C0006038710500F38FE70895899FC0011124BC
:1042D00070E00E94FC2AF4CF61E070E0D7CF81E06B
:1042E0000895803F31F40E94EE208195809356021C
:1042F0000895813F19F40E94EE20F8CF823F31F4F7
:104300000E94EE208195809355020895833F19F411
:104310000E94EE20F8CF893F29F40E943821809333
:10432000570208958A3F21F40E9438218195F7CFE2
:104330008B3F31F40E943821819580935802089573
:104340008C3F19F40E943821F8CF843F31F48091DA
:1043500054028160809354020895853F21F4809136
:1043600054028260F7CF863F21F48091540284602A
:10437000F1CF873F21F4809154028860EBCF883FD2
:1043800021F4809154028061E5CF8D3F31F480911A
:10439000520281608093520208958E3F21F48091F1
:1043A00052028260F7CF8F3FB9F78091520284604A
:1043B000F1CF90915502803F59F48091560287FFCA
:1043C0000DC01092560291110BC01092510208C0FC
:1043D000813F81F48091560218169CF3992381F055
:1043E0008091570290915802892B09F064C0109275
:1043F00050020895823F49F497FFF0CF1092550282
:10440000809156028111ECCFE0CF833F19F4191649
:10441000ACF3E4CF20915702893F29F41216F4F649
:1044200010925702DBCF8A3F19F427FFD7CFF8CF7E
:10443000209158028B3F29F427FFD0CF10925802C9
:10444000CDCF8C3F19F41216CCF3C8CF843F31F492
:10445000809154028E7F80935402C0CF853F21F417
:10446000809154028D7FF7CF863F21F480915402D2
:104470008B7FF1CF873F21F480915402877FEBCF70
:10448000883F21F4809154028F7EE5CF8D3F31F437
:10449000809152028E7F80935202A0CF8E3F21F4F2
:1044A000809152028D7FF7CF8F3F09F097CF809197
:1044B00052028B7FF0CF08950E9447209C0190917B
:1044C000550280915602982B21F030934F02209391
:1044D0004E029091570280915802982B21F0309310
:1044E0004D0220934C0283E592E00C94C512EF92AA
:1044F000FF920F931F93CF93DF9300D000D000D093
:10450000CDB7DEB786E0E3E5F2E0DE01119601907B
:104510000D928A95E1F7E0905502F09056020091D5
:1045200057021091580210925502109256021092A2
:104530005702109258028E2D8F2991F080914E02D1
:1045400090914F020E945F20AC01909151029923FB
:1045500009F43FC080910E018417150608F447C086
:10456000802F812B91F080914C0290914D020E94FE
:104570005F20AC0190915002992309F477C080919B
:104580000A018417150608F47FC0809155029091A6
:104590005602892B90915702892B90915802892BB2
:1045A00011F00E945C2286E0FE013196A3E5B2E0A4
:1045B00001900D928A95E1F726960FB6F894DEBF2A
:1045C0000FBECDBFDF91CF911F910F91FF90EF9064
:1045D000089520910F018AE0289F9001112424174B
:1045E000350708F0BDCF9F5F9093510202C09F3FF7
:1045F000D1F7EE2059F00E94EE209FEF1E140CF42C
:1046000091E0899F802D112480935502FF2059F05D
:104610000E94EE209FEF1F140CF491E0899F802DE3
:1046200011248093560230915502332309F498CF18
:1046300020915602222309F493CF45EB3403C001A5
:104640001124992359F09093550245EB24039001CE
:104650001124332339F03093560282CF81E08093C6
:104660005502F3CF81E0809356027ACF20910B015F
:104670008AE0289F900111242417350708F085CF80
:104680009F5F9093500202C09F3FD1F7002359F0E3
:104690000E9438219FEF10160CF491E0899F802D25
:1046A000112480935702112359F00E9438219FEF63
:1046B00011160CF491E0899F802D112480935802EB
:1046C00030915702332309F460CF209158022223FE
:1046D00009F45BCF45EB3403C0011124992359F051
:1046E0009093570245EB240390011124332339F0B2
:1046F000309358024ACF81E080935702F3CF81E094
:104700008093580242CF86E0E3E5F2E0DF011D929C
:104710008A95E9F7109251021092500210925202BB
:104720000895809161020895CF93DF9300D00F9296
:10473000CDB7DEB790919802943011F589837B83D1
:104740006A839093E9008FEF9091E800815095FD86
:1047500006C095ED9A95F1F700008111F5CF809193
:10476000E80085FF0DC050E040E063E070E0CE015E
:1047700001960E9408268091E8008E778093E800D9
:104780000F900F900F90DF91CF910895BC0184E0BE
:104790000C949423BC0183E00C9494239C0184E04A
:1047A0008093E9009FEF8091E800915085FD06C05D
:1047B00085ED8A95F1F700009111F5CF8091E80021
:1047C00085FF0CC050E040E066E070E0C9010E9447
:1047D00008268091E8008E778093E8000895CF93B3
:1047E000DF93EC0181E08093E9008FEF9091E80086
:1047F000815095FD06C095ED9A95F1F70000811165
:10480000F5CF8091E80085FF14C050E040E068E0FB
:1048100070E0CE010E9408268091E8008E77809398
:10482000E80088E0FE01A9E5B2E001900D928A95CA
:10483000E1F7DF91CF910895CF93FC01603221F52C
:1048400080919802843001F5C091E900CF702091E9
:10485000EC00922F917020FD90E8C92B82E08093AC
:10486000E9008091E80080FF0CC050E040E060E289
:1048700070E0CF010E9408268091E8008E77809337
:10488000E800CF70C093E900CF910895809197021E
:10489000811109C00E94E7270E9444288091E2000C
:1048A00084608093E200089510929702089508951D
:1048B00008950C940F2042E061EC81E00E94632790
:1048C00042E261EC84E00E94632742E261EC82E014
:1048D0000E94632742E260EC83E00C94632780919E
:1048E0009A02833009F461C030F48130D1F1823012
:1048F00009F49DC008958A3009F489C08B3009F409
:104900006FC0893009F050C080919902813209F05E
:104910004BC080919D0290919E02009719F00297E2
:1049200009F042C08091E800877F8093E800809181
:10493000E80082FF35C09091F3008091F200029769
:1049400029F48091F1008B7F813021F48091F10076
:10495000809361028091E8008B778093E8000C944B
:10496000972780919902813AF9F48091E800877F36
:104970008093E80080919D0290919E02892B61F4C2
:1049800068E089E592E070E00E94A6268091E80048
:104990008B778093E800089560E090E080E0F3CFAB
:1049A000809198028111C3CF089580919902813A34
:1049B000D9F780919D0290919E02892BA9F7809151
:1049C000E800877F8093E8008091E80080FFFCCFBB
:1049D00080911A018093F1008091E8008E77BDCF1D
:1049E00080919902813201F780919D0290919E02FF
:1049F000892BD1F68091E800877F8093E8000E94A0
:104A0000972780919B0280931A010C94AD17809197
:104A10009902813249F68091E800877F8093E8000F
:104A20000E94972780919C02809362020895809152
:104A30009902813A09F0B8CF8091E800877F80938E
:104A4000E8008091E80080FFFCCF80916202C2CF35
:104A5000CDB7DEB7A0970FB6F894DEBF0FBECDBFBF
:104A600084B7877F84BF0FB6F894A89580916000C3
:104A7000886180936000109260000FBE80E890E033
:104A80000FB6F89480936100909361000FBE0E946E
:104A90000C130E94E7270E9444288091E200846062
:104AA0008093E20078940E94CD2A0E94181380E13E
:104AB00091E00E94A91213E080919802853059F08C
:104AC0000E94241380919802843091F00E94161362
:104AD0000E941713F1CF0E94C41F80919602882371
:104AE00059F30E94F51F882339F30E94F225E4CF81
:104AF0001093E9008091E80082FFE8CF8091E80000
:104B000090E085FF09C050E040E060E270E0CE0137
:104B100001960E94572691E08091E8008B77809360
:104B2000E800992399F260E2CE0101960E942C0ED2
:104B3000CDCF0C949B25292F33272330310521F12C
:104B400068F42130310509F443C02230310509F4FD
:104B500044C090E080E030E020E026C02132310502
:104B600051F122323105A9F76330710590F7FB014D
:104B7000EE0FFF1FE556FE4F2081318168567E4FB4
:104B8000FB01808190E010C099278130910581F070
:104B9000009729F00297E9F6E0E7F5E002C0E2EAC3
:104BA000F5E0849190E09F01FA013183208308951C
:104BB000E8E8F5E0F6CF6330710558F6660F771F29
:104BC000FB01EF55FE4F2081318189E090E0ECCF71
:104BD00082E190E021E036E0E7CF8BE590E026EA45
:104BE00035E0E2CF80E189BD82E189BD09B400FEF4
:104BF000FDCF8091D8008F7D8093D8008091E00018
:104C000082608093E0008091E00081FDFCCF0895F8
:104C1000AF92BF92CF92DF92FF920F931F93CF93E9
:104C2000DF936C01EB018A010E94B627F82E8111F7
:104C300023C00115110539F0F80180819181C81B4D
:104C4000D90BC80ED91EB12CA12C2097A9F08091A8
:104C5000E80085FD22C08091E8008E778093E8000F
:104C600001151105A1F0F80180819181A80EB91EEE
:104C7000B182A08285E0F82E8F2DDF91CF911F9118
:104C80000F91FF90DF90CF90BF90AF9008950E945A
:104C9000B6278823D1F2F82EEFCFF60181916F016C
:104CA0008093F1002197FFEFAF1ABF0ACECFAF92EA
:104CB000BF92CF92DF92FF920F931F93CF93DF9318
:104CC0006C01EB018A010E94B627F82E811123C0E6
:104CD0000115110539F0F80180819181C81BD90BAC
:104CE000C80ED91EB12CA12C2097A9F08091E80004
:104CF00085FD22C08091E8008B778093E800011544
:104D00001105A1F0F80180819181A80EB91EB18230
:104D1000A08285E0F82E8F2DDF91CF911F910F910A
:104D2000FF90DF90CF90BF90AF9008950E94B6277C
:104D30008823D1F2F82EEFCF8091F100F601819314
:104D40006F012197FFEFAF1ABF0ACECFFC01809110
:104D50009F029091A00286179707A0F06115710538
:104D600029F49091E8009E779093E80090E0611517
:104D7000710551F4911108C08091E80082FF34C0A0
:104D800080E00895BC01F2CF809198028823C1F1A0
:104D90008530C1F18091E80083FD30C08091E8004A
:104DA00082FDEACF8091E80080FFE1CF8091F3009F
:104DB0002091F200382F6115710519F02830310566
:104DC00058F091E02830310509F090E02091E8009A
:104DD0002E772093E800CBCF81918093F100615032
:104DE00071092F5F3F4FE7CF80919802882341F0F0
:104DF000853041F08091E80083FFBECF81E00895C7
:104E000082E0089583E00895FC0180919F029091D3
:104E1000A00286179707A0F06115710529F480910B
:104E2000E8008E778093E80090E06115710551F4F9
:104E3000911108C08091E80082FF35C080E008959C
:104E4000BC01F2CF809198028823C9F18530C9F165
:104E50008091E80083FD31C08091E80082FDEACFB7
:104E60008091E80080FFE1CF8091F3002091F20073
:104E7000382F6115710519F02830310558F091E08F
:104E80002830310509F090E08091E8008E7780931A
:104E9000E800CBCF84918093F10031966150710985
:104EA0002F5F3F4FE6CF80919802882341F08530F5
:104EB00041F08091E80083FFBDCF81E0089582E05A
:104EC000089583E00895982F973028F08F7080938D
:104ED000E90081E008959093E900242F762F50E0B7
:104EE000981731F07091EC002091ED005091F00096
:104EF00021FD02C09F5FE8CF3091EB003E7F3093F1
:104F0000EB003091ED003D7F3093ED003091EB00F0
:104F100031603093EB007093EC002093ED005093E0
:104F2000F0002091EE0027FDE5CF80E0089580910C
:104F3000990287FF13C08091E80082FF06C080912C
:104F4000E8008B778093E80004C08091980281117B
:104F5000F2CF0895809198028823D9F38091E800D8
:104F600080FFF8CF8091E8008E77ECCF2091E400AD
:104F70003091E50095E6A9012091EC00822F817027
:104F800020FF06C08091E80080FF06C080E0089501
:104F90002091E80022FD1AC080919802882389F0B0
:104FA000853089F08091EB0085FD0FC02091E400F1
:104FB0003091E50042175307F9F29150E1F684E091
:104FC000089582E0089583E0089581E008950E94A5
:104FD00055280E945D28E0EEF0E0808181608083AA
:104FE000E8EDF0E080818F77808319BCA7EDB0E019
:104FF0008C918E7F8C9380818F7E8083109297021C
:1050000008950F931F93CF93DF930E9455280E941A
:105010005D28C8EDD0E088818F778883888180689B
:10502000888388818F7D888319BC109298021092A2
:105030009402109296021092950200EE10E0F80190
:1050400080818B7F808388818160888342E060E0FB
:1050500080E00E946327E1EEF0E080818E7F808314
:10506000E2EEF0E0808181608083808188608083CF
:10507000F80180818E7F8083888180618883DF91C1
:10508000CF911F910F910895E8EDF0E080818F7E20
:105090008083E7EDF0E080818160808384E082BFDF
:1050A00081E0809397020C940128E8EDF0E0808184
:1050B0008E7F80831092E20008951092DA001092A1
:1050C000E10008951F920F920FB60F9211242F93B3
:1050D0003F934F935F936F937F938F939F93AF9380
:1050E000BF93EF93FF938091E10082FF0BC080910B
:1050F000E20082FF07C08091E1008B7F8093E10096
:105100000E94CC2A8091DA0080FF19C08091D800DB
:1051100080FF15C08091DA008E7F8093DA00809145
:10512000D90080FF96C080E189BD82E189BD09B4C4
:1051300000FEFDCF81E0809398020E94462480917A
:10514000E10080FF19C08091E20080FF15C08091CE
:10515000E2008E7F8093E2008091E2008061809384
:10516000E2008091D80080628093D80019BC85E06D
:10517000809398020E9458248091E10084FF2BC004
:105180008091E20084FF27C080E189BD82E189BD72
:1051900089B5982F917080FFFBCF8091D8008F7DCB
:1051A0008093D8008091E1008F7E8093E100809110
:1051B000E2008F7E8093E2008091E2008160809324
:1051C000E20080919402882309F449C084E080932E
:1051D00098020E9459248091E10083FF29C08091A8
:1051E000E20083FF25C08091E100877F8093E1008A
:1051F00082E080939802109294028091E1008E7F69
:105200008093E1008091E2008E7F8093E2008091A4
:10521000E20080618093E20042E060E080E00E9472
:1052200063278091F00088608093F0000E945724EB
:10523000FF91EF91BF91AF919F918F917F916F916E
:105240005F914F913F912F910F900FBE0F901F9044
:10525000189519BC109298020E94542470CF809126
:10526000E30087FD93E090939802B3CF1F920F92D3
:105270000FB60F9211242F933F934F935F936F9329
:105280007F938F939F93AF93BF93CF93DF93EF93CE
:10529000FF93D091E900DF708091EC00C82FC170BE
:1052A00080FDC0E81092E9008091F000877F809334
:1052B000F00078940E947A291092E9008091F00021
:1052C00088608093F000CD2BCF70C093E900FF91F0
:1052D000EF91DF91CF91BF91AF919F918F917F918E
:1052E0006F915F914F913F912F910F900FBE0F9053
:1052F0001F9018951F93CF93DF93CDB7DEB7AA9772
:105300000FB6F894DEBF0FBECDBF89E992E02091C1
:10531000F100FC012193CF01F2E0813A9F07B9F738
:105320000E946F248091E80083FF1EC18091990242
:1053300090919A029A3008F017C1E92FF0E0E754F3
:10534000F44D0C94102B803899F0823809F00CC180
:1053500080919D028F70873008F006C18093E9002C
:105360008091EB0085FB882780F91092E90006C048
:105370008091950290919602911182609091E8003F
:10538000977F9093E8008093F1001092F100809154
:10539000E8008E77E5C0882309F4D3C0823009F095
:1053A000E3C080919B028111D6C080919D028F70D5
:1053B0002FEF280F263008F0D7C08093E900209106
:1053C000EB0020FFC8C0933031F48091EB00806285
:1053D0008093EB00C0C09091EB0090619093EB0044
:1053E00021E030E001C0220F8A95EAF72093EA001D
:1053F0001092EA008091EB008860EACF8111B4C07E
:1054000010919B021F778091E3008078812B80931D
:10541000E3008091E800877F8093E8000E9497274F
:105420008091E80080FFFCCF8091E300806880934A
:10543000E30082E0111183E08093980295C08058C8
:10544000823008F091C080919B0290919C028C3D2B
:1054500023E09207A1F583E08A838AE289834FB72C
:10546000F894DE01139620E03EE051E2E32FF0E0F5
:1054700050935700E49120FF03C0E295EF703F5F27
:10548000EF708E2F90E0EA30C0F0C7968D939D9319
:105490002F5F243159F74FBF8091E800877F8093B9
:1054A000E8006AE270E0CE0101960E94A626809193
:1054B000E8008B778093E80057C0C096E7CF6091F3
:1054C0009D0270919E02AE014F5F5F4F0E94992531
:1054D000BC01892B09F448C09091E800977F909314
:1054E000E80089819A810E940427E1CF8038E1F5A4
:1054F0008091E800877F8093E800809194028093F8
:10550000F10045CF811130C090919B02923060F53F
:105510008091E800877F8093E800909394020E9436
:10552000972780919402882311F084E005C0809130
:10553000E30087FDFACF81E0809398020E945B240C
:1055400013C080919B02813079F481E0933009F09F
:1055500080E0809396021092E9008091E800877FB6
:105560008093E8000E9497278091E80083FF0AC09B
:105570008091E800877F8093E8008091EB00806253
:105580008093EB00AA960FB6F894DEBF0FBECDBF96
:10559000DF91CF911F9108950895CF938091980244
:1055A0008823A1F0C091E900CF709091EC00892F81
:1055B000817090FD80E8C82B1092E9008091E8008E
:1055C00083FD0E947A29CF70C093E900CF9108959E
:1055D000AA1BBB1B51E107C0AA1FBB1FA617B70719
:1055E00010F0A61BB70B881F991F5A95A9F7809535
:1055F0009095BC01CD01089597FB072E16F40094F9
:1056000007D077FD09D00E94E82A07FC05D03EF4B8
:10561000909581959F4F0895709561957F4F08955E
:10562000EE0FFF1F0590F491E02D0994692796274E
:1056300069277827872778270895FC014150504033
:1056400030F001900616D1F73197CF0108958827E1
:1056500099270895F999FECF92BD81BDF89A9927AF
:1056600080B50895A6E1B0E044E050E00C94642BCE
:10567000A8E1B0E042E050E00C94642B262FF999A9
:10568000FECF92BD81BDF89A019700B4021639F0A1
:105690001FBA20BD0FB6F894FA9AF99A0FBE089572
:1056A0000396272F0E943F2B0E943E2B252F0E94FE
:1056B0003F2B242F0C943F2B0196272F0E943F2B2A
:1056C0000C943E2BDC01CB01FC01F999FECF06C006
:1056D000F2BDE1BDF89A319600B40D9241505040B0
:1056E000B8F70895F894FFCFD20CDA0CE10CE60C71
:1056F000EB0CF00CF50CFA0CFF0C040D090D0E0D63
:10570000120DD40CD40CD40CD40CD40CD40CD40C5A
:10571000400E4D0E750E810E8C0E970E9A0E9D0E3C
:10572000A00EE90EE90EA30EA70EAF0EBC0EC90E19
:10573000CC0ECF0EDC0E76157615CE15CE152016B6
:105740003C16A315A3154716D316E216E2163E170C
:10575000A315A3154717BC17BC17C517C517C7173F
:10576000C517C517C517BC17BC17CC17C517C51764
:10577000CC17A329CB29B42ACB29B42AFE291F2A66
:06578000B42A762A822AF9
:105786000002000202013F022808641E140A321EAB
:105796009123EF23CE23CA23C62301E200E900EAC0
:1057A60000B500B600B700CD008301CC008A019297
:1057B6000194012102230224022502260227022A3D
:1057C60002B300B4006F007000818283F5F6F766BD
:1057D60034979694959392919033323531F0F167E0
:1057E600F4000102020202E200E900EA00B500B696
:1057F60000B700CD008301CC008A019201940121FB
:1058060002230224022502260227022A02B300B43A
:10581600006F007000818283402281B60613063530
:0858260006B805D105F10500EB
:00000001FF
